{
  "contractName": "CasinoDiceToken",
  "abi": [
    {
      "inputs": [],
      "stateMutability": "payable",
      "type": "constructor",
      "payable": true
    },
    {
      "anonymous": false,
      "inputs": [
        {
          "indexed": true,
          "internalType": "address",
          "name": "owner",
          "type": "address"
        },
        {
          "indexed": true,
          "internalType": "address",
          "name": "spender",
          "type": "address"
        },
        {
          "indexed": false,
          "internalType": "uint256",
          "name": "value",
          "type": "uint256"
        }
      ],
      "name": "Approval",
      "type": "event"
    },
    {
      "anonymous": false,
      "inputs": [
        {
          "indexed": true,
          "internalType": "address",
          "name": "from",
          "type": "address"
        },
        {
          "components": [
            {
              "internalType": "uint256",
              "name": "gameId",
              "type": "uint256"
            },
            {
              "internalType": "address",
              "name": "player",
              "type": "address"
            },
            {
              "internalType": "uint256",
              "name": "date",
              "type": "uint256"
            },
            {
              "internalType": "uint256",
              "name": "result",
              "type": "uint256"
            },
            {
              "internalType": "bool",
              "name": "win",
              "type": "bool"
            },
            {
              "components": [
                {
                  "internalType": "string",
                  "name": "betType",
                  "type": "string"
                },
                {
                  "internalType": "uint256",
                  "name": "betValue",
                  "type": "uint256"
                },
                {
                  "internalType": "uint256",
                  "name": "betToken",
                  "type": "uint256"
                }
              ],
              "internalType": "struct CasinoDiceToken.BetRequest",
              "name": "betRequest",
              "type": "tuple"
            }
          ],
          "indexed": false,
          "internalType": "struct CasinoDiceToken.Game",
          "name": "game",
          "type": "tuple"
        }
      ],
      "name": "GameResult",
      "type": "event"
    },
    {
      "anonymous": false,
      "inputs": [
        {
          "indexed": true,
          "internalType": "address",
          "name": "previousOwner",
          "type": "address"
        },
        {
          "indexed": true,
          "internalType": "address",
          "name": "newOwner",
          "type": "address"
        }
      ],
      "name": "OwnershipTransferred",
      "type": "event"
    },
    {
      "anonymous": false,
      "inputs": [
        {
          "indexed": true,
          "internalType": "address",
          "name": "from",
          "type": "address"
        },
        {
          "indexed": false,
          "internalType": "uint256",
          "name": "amount",
          "type": "uint256"
        }
      ],
      "name": "TopupSuccessful",
      "type": "event"
    },
    {
      "anonymous": false,
      "inputs": [
        {
          "indexed": true,
          "internalType": "address",
          "name": "from",
          "type": "address"
        },
        {
          "indexed": true,
          "internalType": "address",
          "name": "to",
          "type": "address"
        },
        {
          "indexed": false,
          "internalType": "uint256",
          "name": "value",
          "type": "uint256"
        }
      ],
      "name": "Transfer",
      "type": "event"
    },
    {
      "anonymous": false,
      "inputs": [
        {
          "indexed": true,
          "internalType": "address",
          "name": "from",
          "type": "address"
        },
        {
          "indexed": false,
          "internalType": "uint256",
          "name": "amount",
          "type": "uint256"
        }
      ],
      "name": "WithdrawSuccessful",
      "type": "event"
    },
    {
      "anonymous": false,
      "inputs": [
        {
          "indexed": true,
          "internalType": "address",
          "name": "from",
          "type": "address"
        },
        {
          "components": [
            {
              "internalType": "string",
              "name": "betType",
              "type": "string"
            },
            {
              "internalType": "uint256",
              "name": "betValue",
              "type": "uint256"
            },
            {
              "internalType": "uint256",
              "name": "betToken",
              "type": "uint256"
            }
          ],
          "indexed": false,
          "internalType": "struct CasinoDiceToken.BetRequest",
          "name": "betRequest",
          "type": "tuple"
        }
      ],
      "name": "xxx",
      "type": "event"
    },
    {
      "inputs": [
        {
          "internalType": "address",
          "name": "owner",
          "type": "address"
        },
        {
          "internalType": "address",
          "name": "spender",
          "type": "address"
        }
      ],
      "name": "allowance",
      "outputs": [
        {
          "internalType": "uint256",
          "name": "",
          "type": "uint256"
        }
      ],
      "stateMutability": "view",
      "type": "function",
      "constant": true
    },
    {
      "inputs": [
        {
          "internalType": "address",
          "name": "spender",
          "type": "address"
        },
        {
          "internalType": "uint256",
          "name": "amount",
          "type": "uint256"
        }
      ],
      "name": "approve",
      "outputs": [
        {
          "internalType": "bool",
          "name": "",
          "type": "bool"
        }
      ],
      "stateMutability": "nonpayable",
      "type": "function"
    },
    {
      "inputs": [
        {
          "internalType": "address",
          "name": "account",
          "type": "address"
        }
      ],
      "name": "balanceOf",
      "outputs": [
        {
          "internalType": "uint256",
          "name": "",
          "type": "uint256"
        }
      ],
      "stateMutability": "view",
      "type": "function",
      "constant": true
    },
    {
      "inputs": [],
      "name": "decimals",
      "outputs": [
        {
          "internalType": "uint8",
          "name": "",
          "type": "uint8"
        }
      ],
      "stateMutability": "view",
      "type": "function",
      "constant": true
    },
    {
      "inputs": [
        {
          "internalType": "address",
          "name": "spender",
          "type": "address"
        },
        {
          "internalType": "uint256",
          "name": "subtractedValue",
          "type": "uint256"
        }
      ],
      "name": "decreaseAllowance",
      "outputs": [
        {
          "internalType": "bool",
          "name": "",
          "type": "bool"
        }
      ],
      "stateMutability": "nonpayable",
      "type": "function"
    },
    {
      "inputs": [
        {
          "internalType": "address",
          "name": "spender",
          "type": "address"
        },
        {
          "internalType": "uint256",
          "name": "addedValue",
          "type": "uint256"
        }
      ],
      "name": "increaseAllowance",
      "outputs": [
        {
          "internalType": "bool",
          "name": "",
          "type": "bool"
        }
      ],
      "stateMutability": "nonpayable",
      "type": "function"
    },
    {
      "inputs": [],
      "name": "name",
      "outputs": [
        {
          "internalType": "string",
          "name": "",
          "type": "string"
        }
      ],
      "stateMutability": "view",
      "type": "function",
      "constant": true
    },
    {
      "inputs": [],
      "name": "owner",
      "outputs": [
        {
          "internalType": "address",
          "name": "",
          "type": "address"
        }
      ],
      "stateMutability": "view",
      "type": "function",
      "constant": true
    },
    {
      "inputs": [],
      "name": "renounceOwnership",
      "outputs": [],
      "stateMutability": "nonpayable",
      "type": "function"
    },
    {
      "inputs": [],
      "name": "symbol",
      "outputs": [
        {
          "internalType": "string",
          "name": "",
          "type": "string"
        }
      ],
      "stateMutability": "view",
      "type": "function",
      "constant": true
    },
    {
      "inputs": [],
      "name": "totalSupply",
      "outputs": [
        {
          "internalType": "uint256",
          "name": "",
          "type": "uint256"
        }
      ],
      "stateMutability": "view",
      "type": "function",
      "constant": true
    },
    {
      "inputs": [
        {
          "internalType": "address",
          "name": "recipient",
          "type": "address"
        },
        {
          "internalType": "uint256",
          "name": "amount",
          "type": "uint256"
        }
      ],
      "name": "transfer",
      "outputs": [
        {
          "internalType": "bool",
          "name": "",
          "type": "bool"
        }
      ],
      "stateMutability": "nonpayable",
      "type": "function"
    },
    {
      "inputs": [
        {
          "internalType": "address",
          "name": "sender",
          "type": "address"
        },
        {
          "internalType": "address",
          "name": "recipient",
          "type": "address"
        },
        {
          "internalType": "uint256",
          "name": "amount",
          "type": "uint256"
        }
      ],
      "name": "transferFrom",
      "outputs": [
        {
          "internalType": "bool",
          "name": "",
          "type": "bool"
        }
      ],
      "stateMutability": "nonpayable",
      "type": "function"
    },
    {
      "inputs": [
        {
          "internalType": "address",
          "name": "newOwner",
          "type": "address"
        }
      ],
      "name": "transferOwnership",
      "outputs": [],
      "stateMutability": "nonpayable",
      "type": "function"
    },
    {
      "inputs": [],
      "name": "buy",
      "outputs": [],
      "stateMutability": "payable",
      "type": "function",
      "payable": true
    },
    {
      "inputs": [],
      "name": "withdraw",
      "outputs": [],
      "stateMutability": "nonpayable",
      "type": "function"
    },
    {
      "inputs": [
        {
          "components": [
            {
              "internalType": "string",
              "name": "betType",
              "type": "string"
            },
            {
              "internalType": "uint256",
              "name": "betValue",
              "type": "uint256"
            },
            {
              "internalType": "uint256",
              "name": "betToken",
              "type": "uint256"
            }
          ],
          "internalType": "struct CasinoDiceToken.BetRequest",
          "name": "betRequest",
          "type": "tuple"
        }
      ],
      "name": "roll",
      "outputs": [
        {
          "components": [
            {
              "internalType": "uint256",
              "name": "gameId",
              "type": "uint256"
            },
            {
              "internalType": "address",
              "name": "player",
              "type": "address"
            },
            {
              "internalType": "uint256",
              "name": "date",
              "type": "uint256"
            },
            {
              "internalType": "uint256",
              "name": "result",
              "type": "uint256"
            },
            {
              "internalType": "bool",
              "name": "win",
              "type": "bool"
            },
            {
              "components": [
                {
                  "internalType": "string",
                  "name": "betType",
                  "type": "string"
                },
                {
                  "internalType": "uint256",
                  "name": "betValue",
                  "type": "uint256"
                },
                {
                  "internalType": "uint256",
                  "name": "betToken",
                  "type": "uint256"
                }
              ],
              "internalType": "struct CasinoDiceToken.BetRequest",
              "name": "betRequest",
              "type": "tuple"
            }
          ],
          "internalType": "struct CasinoDiceToken.Game",
          "name": "game",
          "type": "tuple"
        }
      ],
      "stateMutability": "nonpayable",
      "type": "function"
    },
    {
      "inputs": [
        {
          "internalType": "uint256",
          "name": "_resultsPerPage",
          "type": "uint256"
        },
        {
          "internalType": "uint256",
          "name": "_page",
          "type": "uint256"
        }
      ],
      "name": "paginatedGames",
      "outputs": [
        {
          "components": [
            {
              "internalType": "uint256",
              "name": "gameId",
              "type": "uint256"
            },
            {
              "internalType": "address",
              "name": "player",
              "type": "address"
            },
            {
              "internalType": "uint256",
              "name": "date",
              "type": "uint256"
            },
            {
              "internalType": "uint256",
              "name": "result",
              "type": "uint256"
            },
            {
              "internalType": "bool",
              "name": "win",
              "type": "bool"
            },
            {
              "components": [
                {
                  "internalType": "string",
                  "name": "betType",
                  "type": "string"
                },
                {
                  "internalType": "uint256",
                  "name": "betValue",
                  "type": "uint256"
                },
                {
                  "internalType": "uint256",
                  "name": "betToken",
                  "type": "uint256"
                }
              ],
              "internalType": "struct CasinoDiceToken.BetRequest",
              "name": "betRequest",
              "type": "tuple"
            }
          ],
          "internalType": "struct CasinoDiceToken.Game[]",
          "name": "",
          "type": "tuple[]"
        }
      ],
      "stateMutability": "view",
      "type": "function",
      "constant": true
    },
    {
      "inputs": [],
      "name": "getBetFee",
      "outputs": [
        {
          "internalType": "uint256",
          "name": "",
          "type": "uint256"
        }
      ],
      "stateMutability": "view",
      "type": "function",
      "constant": true
    }
  ],
  "bytecode": "0x60806040526103e86006556040518060400160405280601181526020017f436173696e6f204469636520546f6b656e0000000000000000000000000000008152506040518060400160405280600381526020017f434454000000000000000000000000000000000000000000000000000000000081525081600390805190602001906200008e929190620003ae565b508060049080519060200190620000a7929190620003ae565b505050620000ca620000be6200015460201b60201c565b6200015c60201b60201c565b6200010b33620000df6200022260201b60201c565b60ff16600a620000f09190620005eb565b6103e8620000ff91906200063c565b6200022b60201b60201c565b60016200011d6200022260201b60201c565b620001299190620006aa565b60ff16600a6200013a9190620005eb565b60056200014891906200063c565b60078190555062000858565b600033905090565b6000600560009054906101000a900473ffffffffffffffffffffffffffffffffffffffff16905081600560006101000a81548173ffffffffffffffffffffffffffffffffffffffff021916908373ffffffffffffffffffffffffffffffffffffffff1602179055508173ffffffffffffffffffffffffffffffffffffffff168173ffffffffffffffffffffffffffffffffffffffff167f8be0079c531659141344cd1fd0a4f28419497f9722a3daafe3b4186f6b6457e060405160405180910390a35050565b60006012905090565b600073ffffffffffffffffffffffffffffffffffffffff168273ffffffffffffffffffffffffffffffffffffffff1614156200029e576040517f08c379a0000000000000000000000000000000000000000000000000000000008152600401620002959062000746565b60405180910390fd5b620002b260008383620003a460201b60201c565b8060026000828254620002c6919062000768565b92505081905550806000808473ffffffffffffffffffffffffffffffffffffffff1673ffffffffffffffffffffffffffffffffffffffff16815260200190815260200160002060008282546200031d919062000768565b925050819055508173ffffffffffffffffffffffffffffffffffffffff16600073ffffffffffffffffffffffffffffffffffffffff167fddf252ad1be2c89b69c2b068fc378daa952ba7f163c4a11628f55a4df523b3ef83604051620003849190620007d6565b60405180910390a3620003a060008383620003a960201b60201c565b5050565b505050565b505050565b828054620003bc9062000822565b90600052602060002090601f016020900481019282620003e057600085556200042c565b82601f10620003fb57805160ff19168380011785556200042c565b828001600101855582156200042c579182015b828111156200042b5782518255916020019190600101906200040e565b5b5090506200043b91906200043f565b5090565b5b808211156200045a57600081600090555060010162000440565b5090565b7f4e487b7100000000000000000000000000000000000000000000000000000000600052601160045260246000fd5b60008160011c9050919050565b6000808291508390505b6001851115620004ec57808604811115620004c457620004c36200045e565b5b6001851615620004d45780820291505b8081029050620004e4856200048d565b9450620004a4565b94509492505050565b600082620005075760019050620005da565b81620005175760009050620005da565b81600181146200053057600281146200053b5762000571565b6001915050620005da565b60ff84111562000550576200054f6200045e565b5b8360020a9150848211156200056a57620005696200045e565b5b50620005da565b5060208310610133831016604e8410600b8410161715620005ab5782820a905083811115620005a557620005a46200045e565b5b620005da565b620005ba84848460016200049a565b92509050818404811115620005d457620005d36200045e565b5b81810290505b9392505050565b6000819050919050565b6000620005f882620005e1565b91506200060583620005e1565b9250620006347fffffffffffffffffffffffffffffffffffffffffffffffffffffffffffffffff8484620004f5565b905092915050565b60006200064982620005e1565b91506200065683620005e1565b9250817fffffffffffffffffffffffffffffffffffffffffffffffffffffffffffffffff04831182151516156200069257620006916200045e565b5b828202905092915050565b600060ff82169050919050565b6000620006b7826200069d565b9150620006c4836200069d565b925082821015620006da57620006d96200045e565b5b828203905092915050565b600082825260208201905092915050565b7f45524332303a206d696e7420746f20746865207a65726f206164647265737300600082015250565b60006200072e601f83620006e5565b91506200073b82620006f6565b602082019050919050565b6000602082019050818103600083015262000761816200071f565b9050919050565b60006200077582620005e1565b91506200078283620005e1565b9250827fffffffffffffffffffffffffffffffffffffffffffffffffffffffffffffffff03821115620007ba57620007b96200045e565b5b828201905092915050565b620007d081620005e1565b82525050565b6000602082019050620007ed6000830184620007c5565b92915050565b7f4e487b7100000000000000000000000000000000000000000000000000000000600052602260045260246000fd5b600060028204905060018216806200083b57607f821691505b60208210811415620008525762000851620007f3565b5b50919050565b61329280620008686000396000f3fe6080604052600436106101145760003560e01c8063429d2861116100a0578063a457c2d711610064578063a457c2d7146103b7578063a6f2ae3a146103f4578063a9059cbb146103fe578063dd62ed3e1461043b578063f2fde38b1461047857610114565b8063429d2861146102d057806370a082311461030d578063715018a61461034a5780638da5cb5b1461036157806395d89b411461038c57610114565b806323b872dd116100e757806323b872dd146101d7578063313ce56714610214578063395093511461023f5780633a3565c91461027c5780633ccfd60b146102b957610114565b806306fdde0314610119578063095ea7b3146101445780630988c2231461018157806318160ddd146101ac575b600080fd5b34801561012557600080fd5b5061012e6104a1565b60405161013b9190611f27565b60405180910390f35b34801561015057600080fd5b5061016b60048036038101906101669190611ff1565b610533565b604051610178919061204c565b60405180910390f35b34801561018d57600080fd5b50610196610551565b6040516101a39190612076565b60405180910390f35b3480156101b857600080fd5b506101c161055b565b6040516101ce9190612076565b60405180910390f35b3480156101e357600080fd5b506101fe60048036038101906101f99190612091565b610565565b60405161020b919061204c565b60405180910390f35b34801561022057600080fd5b5061022961065d565b6040516102369190612100565b60405180910390f35b34801561024b57600080fd5b5061026660048036038101906102619190611ff1565b610666565b604051610273919061204c565b60405180910390f35b34801561028857600080fd5b506102a3600480360381019061029e919061213f565b610712565b6040516102b091906122d8565b60405180910390f35b3480156102c557600080fd5b506102ce610b1b565b005b3480156102dc57600080fd5b506102f760048036038101906102f291906122fa565b610be9565b6040516103049190612485565b60405180910390f35b34801561031957600080fd5b50610334600480360381019061032f91906124a7565b610edd565b6040516103419190612076565b60405180910390f35b34801561035657600080fd5b5061035f610f25565b005b34801561036d57600080fd5b50610376610fad565b60405161038391906124e3565b60405180910390f35b34801561039857600080fd5b506103a1610fd7565b6040516103ae9190611f27565b60405180910390f35b3480156103c357600080fd5b506103de60048036038101906103d99190611ff1565b611069565b6040516103eb919061204c565b60405180910390f35b6103fc611154565b005b34801561040a57600080fd5b5061042560048036038101906104209190611ff1565b6111c6565b604051610432919061204c565b60405180910390f35b34801561044757600080fd5b50610462600480360381019061045d91906124fe565b6111e4565b60405161046f9190612076565b60405180910390f35b34801561048457600080fd5b5061049f600480360381019061049a91906124a7565b61126b565b005b6060600380546104b09061256d565b80601f01602080910402602001604051908101604052809291908181526020018280546104dc9061256d565b80156105295780601f106104fe57610100808354040283529160200191610529565b820191906000526020600020905b81548152906001019060200180831161050c57829003601f168201915b5050505050905090565b6000610547610540611363565b848461136b565b6001905092915050565b6000600754905090565b6000600254905090565b6000610572848484611536565b6000600160008673ffffffffffffffffffffffffffffffffffffffff1673ffffffffffffffffffffffffffffffffffffffff16815260200190815260200160002060006105bd611363565b73ffffffffffffffffffffffffffffffffffffffff1673ffffffffffffffffffffffffffffffffffffffff1681526020019081526020016000205490508281101561063d576040517f08c379a000000000000000000000000000000000000000000000000000000000815260040161063490612611565b60405180910390fd5b61065185610649611363565b85840361136b565b60019150509392505050565b60006012905090565b6000610708610673611363565b848460016000610681611363565b73ffffffffffffffffffffffffffffffffffffffff1673ffffffffffffffffffffffffffffffffffffffff16815260200190815260200160002060008873ffffffffffffffffffffffffffffffffffffffff1673ffffffffffffffffffffffffffffffffffffffff168152602001908152602001600020546107039190612660565b61136b565b6001905092915050565b61071a611d76565b6107283383604001356117b7565b6000610732611846565b905060006004821015610746576000610749565b60015b9050600080610756610551565b90506000600190506107ef87806000019061077191906126c5565b8080601f016020809104026020016040519081016040528093929190818152602001838380828437600081840152601f19601f820116905080830192505050505050506040518060400160405280600781526020017f6c6f77486967680000000000000000000000000000000000000000000000000081525061189c565b1561082b576000600188602001351461080957600061080c565b60015b905084151581151514610820576000610823565b60015b935050610924565b6108bc87806000019061083e91906126c5565b8080601f016020809104026020016040519081016040528093929190818152602001838380828437600081840152601f19601f820116905080830192505050505050506040518060400160405280600b81526020017f67756573734e756d62657200000000000000000000000000000000000000000081525061189c565b156108e157848760200135146108d35760006108d6565b60015b925060069050610923565b6000610922576040517f08c379a000000000000000000000000000000000000000000000000000000000815260040161091990612774565b60405180910390fd5b5b5b82156109535761094e3383838a6040013561093f9190612794565b61094991906127ee565b6118f5565b61096d565b61096c338389604001356109679190612660565b611a55565b5b6040518060c0016040528060085481526020013373ffffffffffffffffffffffffffffffffffffffff1681526020014281526020018681526020018415158152602001886109ba906129e1565b815250955060098690806001815401808255809150506001900390600052602060002090600802016000909190919091506000820151816000015560208201518160010160006101000a81548173ffffffffffffffffffffffffffffffffffffffff021916908373ffffffffffffffffffffffffffffffffffffffff160217905550604082015181600201556060820151816003015560808201518160040160006101000a81548160ff02191690831515021790555060a0820151816005016000820151816000019080519060200190610a95929190611dca565b506020820151816001015560408201518160020155505050506001600854610abd9190612660565b6008819055503373ffffffffffffffffffffffffffffffffffffffff167f9ca88a5edf4353be1cedd3c29409d7fdc786a9a393284bdb6d8cdf687a27593287604051610b0991906122d8565b60405180910390a25050505050919050565b6000610b2633610edd565b905060008111610b3957610b386129f4565b5b610b433382611a55565b6000610b4e82611c2c565b90503373ffffffffffffffffffffffffffffffffffffffff166108fc829081150290604051600060405180830381858888f19350505050158015610b96573d6000803e3d6000fd5b503373ffffffffffffffffffffffffffffffffffffffff167f84e742a3ea03623687a5febaa797636d728230721d4b3d1405d19fbbc16298d983604051610bdd9190612076565b60405180910390a25050565b6060600060098054905090506000811415610c5b57600067ffffffffffffffff811115610c1957610c18612827565b5b604051908082528060200260200182016040528015610c5257816020015b610c3f611d76565b815260200190600190039081610c375790505b50915050610ed7565b600084600185610c6b91906127ee565b610c759190612794565b905080821115610c92578082610c8b91906127ee565b9050610c96565b8190505b600080868311610ca65782610ca8565b865b905060008167ffffffffffffffff811115610cc657610cc5612827565b5b604051908082528060200260200182016040528015610cff57816020015b610cec611d76565b815260200190600190039081610ce45790505b5090505b87831015610ece578380610d1690612a23565b94505060098481548110610d2d57610d2c612a4d565b5b90600052602060002090600802016040518060c0016040529081600082015481526020016001820160009054906101000a900473ffffffffffffffffffffffffffffffffffffffff1673ffffffffffffffffffffffffffffffffffffffff1673ffffffffffffffffffffffffffffffffffffffff16815260200160028201548152602001600382015481526020016004820160009054906101000a900460ff1615151515815260200160058201604051806060016040529081600082018054610df59061256d565b80601f0160208091040260200160405190810160405280929190818152602001828054610e219061256d565b8015610e6e5780601f10610e4357610100808354040283529160200191610e6e565b820191906000526020600020905b815481529060010190602001808311610e5157829003601f168201915b505050505081526020016001820154815260200160028201548152505081525050818481518110610ea257610ea1612a4d565b5b60200260200101819052506000841415610ebb57610ece565b8280610ec690612a7c565b935050610d03565b80955050505050505b92915050565b60008060008373ffffffffffffffffffffffffffffffffffffffff1673ffffffffffffffffffffffffffffffffffffffff168152602001908152602001600020549050919050565b610f2d611363565b73ffffffffffffffffffffffffffffffffffffffff16610f4b610fad565b73ffffffffffffffffffffffffffffffffffffffff1614610fa1576040517f08c379a0000000000000000000000000000000000000000000000000000000008152600401610f9890612b11565b60405180910390fd5b610fab6000611c43565b565b6000600560009054906101000a900473ffffffffffffffffffffffffffffffffffffffff16905090565b606060048054610fe69061256d565b80601f01602080910402602001604051908101604052809291908181526020018280546110129061256d565b801561105f5780601f106110345761010080835404028352916020019161105f565b820191906000526020600020905b81548152906001019060200180831161104257829003601f168201915b5050505050905090565b60008060016000611078611363565b73ffffffffffffffffffffffffffffffffffffffff1673ffffffffffffffffffffffffffffffffffffffff16815260200190815260200160002060008573ffffffffffffffffffffffffffffffffffffffff1673ffffffffffffffffffffffffffffffffffffffff16815260200190815260200160002054905082811015611135576040517f08c379a000000000000000000000000000000000000000000000000000000000815260040161112c90612ba3565b60405180910390fd5b611149611140611363565b8585840361136b565b600191505092915050565b61115e3334611d09565b600061116934611d55565b905061117533826118f5565b3373ffffffffffffffffffffffffffffffffffffffff167fbc3c393a91c73a771ce19c88a14e7504a6df38d1182b3faf12105a7b0e05cf40826040516111bb9190612076565b60405180910390a250565b60006111da6111d3611363565b8484611536565b6001905092915050565b6000600160008473ffffffffffffffffffffffffffffffffffffffff1673ffffffffffffffffffffffffffffffffffffffff16815260200190815260200160002060008373ffffffffffffffffffffffffffffffffffffffff1673ffffffffffffffffffffffffffffffffffffffff16815260200190815260200160002054905092915050565b611273611363565b73ffffffffffffffffffffffffffffffffffffffff16611291610fad565b73ffffffffffffffffffffffffffffffffffffffff16146112e7576040517f08c379a00000000000000000000000000000000000000000000000000000000081526004016112de90612b11565b60405180910390fd5b600073ffffffffffffffffffffffffffffffffffffffff168173ffffffffffffffffffffffffffffffffffffffff161415611357576040517f08c379a000000000000000000000000000000000000000000000000000000000815260040161134e90612c35565b60405180910390fd5b61136081611c43565b50565b600033905090565b600073ffffffffffffffffffffffffffffffffffffffff168373ffffffffffffffffffffffffffffffffffffffff1614156113db576040517f08c379a00000000000000000000000000000000000000000000000000000000081526004016113d290612cc7565b60405180910390fd5b600073ffffffffffffffffffffffffffffffffffffffff168273ffffffffffffffffffffffffffffffffffffffff16141561144b576040517f08c379a000000000000000000000000000000000000000000000000000000000815260040161144290612d59565b60405180910390fd5b80600160008573ffffffffffffffffffffffffffffffffffffffff1673ffffffffffffffffffffffffffffffffffffffff16815260200190815260200160002060008473ffffffffffffffffffffffffffffffffffffffff1673ffffffffffffffffffffffffffffffffffffffff168152602001908152602001600020819055508173ffffffffffffffffffffffffffffffffffffffff168373ffffffffffffffffffffffffffffffffffffffff167f8c5be1e5ebec7d5bd14f71427d1e84f3dd0314c0f7b2291e5b200ac8c7c3b925836040516115299190612076565b60405180910390a3505050565b600073ffffffffffffffffffffffffffffffffffffffff168373ffffffffffffffffffffffffffffffffffffffff1614156115a6576040517f08c379a000000000000000000000000000000000000000000000000000000000815260040161159d90612deb565b60405180910390fd5b600073ffffffffffffffffffffffffffffffffffffffff168273ffffffffffffffffffffffffffffffffffffffff161415611616576040517f08c379a000000000000000000000000000000000000000000000000000000000815260040161160d90612e7d565b60405180910390fd5b611621838383611d6c565b60008060008573ffffffffffffffffffffffffffffffffffffffff1673ffffffffffffffffffffffffffffffffffffffff168152602001908152602001600020549050818110156116a7576040517f08c379a000000000000000000000000000000000000000000000000000000000815260040161169e90612f0f565b60405180910390fd5b8181036000808673ffffffffffffffffffffffffffffffffffffffff1673ffffffffffffffffffffffffffffffffffffffff16815260200190815260200160002081905550816000808573ffffffffffffffffffffffffffffffffffffffff1673ffffffffffffffffffffffffffffffffffffffff168152602001908152602001600020600082825461173a9190612660565b925050819055508273ffffffffffffffffffffffffffffffffffffffff168473ffffffffffffffffffffffffffffffffffffffff167fddf252ad1be2c89b69c2b068fc378daa952ba7f163c4a11628f55a4df523b3ef8460405161179e9190612076565b60405180910390a36117b1848484611d71565b50505050565b600073ffffffffffffffffffffffffffffffffffffffff168273ffffffffffffffffffffffffffffffffffffffff1614156117f157600080fd5b60006117fc33610edd565b905081811015611841576040517f08c379a000000000000000000000000000000000000000000000000000000000815260040161183890612f7b565b60405180910390fd5b505050565b600080444260405160200161185c929190612fbc565b6040516020818303038152906040528051906020012060001c905060006006826118869190613017565b90506001816118959190612660565b9250505090565b6000816040516020016118af9190613084565b60405160208183030381529060405280519060200120836040516020016118d69190613084565b6040516020818303038152906040528051906020012014905092915050565b600073ffffffffffffffffffffffffffffffffffffffff168273ffffffffffffffffffffffffffffffffffffffff161415611965576040517f08c379a000000000000000000000000000000000000000000000000000000000815260040161195c906130e7565b60405180910390fd5b61197160008383611d6c565b80600260008282546119839190612660565b92505081905550806000808473ffffffffffffffffffffffffffffffffffffffff1673ffffffffffffffffffffffffffffffffffffffff16815260200190815260200160002060008282546119d89190612660565b925050819055508173ffffffffffffffffffffffffffffffffffffffff16600073ffffffffffffffffffffffffffffffffffffffff167fddf252ad1be2c89b69c2b068fc378daa952ba7f163c4a11628f55a4df523b3ef83604051611a3d9190612076565b60405180910390a3611a5160008383611d71565b5050565b600073ffffffffffffffffffffffffffffffffffffffff168273ffffffffffffffffffffffffffffffffffffffff161415611ac5576040517f08c379a0000000000000000000000000000000000000000000000000000000008152600401611abc90613179565b60405180910390fd5b611ad182600083611d6c565b60008060008473ffffffffffffffffffffffffffffffffffffffff1673ffffffffffffffffffffffffffffffffffffffff16815260200190815260200160002054905081811015611b57576040517f08c379a0000000000000000000000000000000000000000000000000000000008152600401611b4e9061320b565b60405180910390fd5b8181036000808573ffffffffffffffffffffffffffffffffffffffff1673ffffffffffffffffffffffffffffffffffffffff168152602001908152602001600020819055508160026000828254611bae91906127ee565b92505081905550600073ffffffffffffffffffffffffffffffffffffffff168373ffffffffffffffffffffffffffffffffffffffff167fddf252ad1be2c89b69c2b068fc378daa952ba7f163c4a11628f55a4df523b3ef84604051611c139190612076565b60405180910390a3611c2783600084611d71565b505050565b600060065482611c3c919061322b565b9050919050565b6000600560009054906101000a900473ffffffffffffffffffffffffffffffffffffffff16905081600560006101000a81548173ffffffffffffffffffffffffffffffffffffffff021916908373ffffffffffffffffffffffffffffffffffffffff1602179055508173ffffffffffffffffffffffffffffffffffffffff168173ffffffffffffffffffffffffffffffffffffffff167f8be0079c531659141344cd1fd0a4f28419497f9722a3daafe3b4186f6b6457e060405160405180910390a35050565b600073ffffffffffffffffffffffffffffffffffffffff168273ffffffffffffffffffffffffffffffffffffffff161415611d4357600080fd5b6000811415611d5157600080fd5b5050565b600060065482611d659190612794565b9050919050565b505050565b505050565b6040518060c0016040528060008152602001600073ffffffffffffffffffffffffffffffffffffffff1681526020016000815260200160008152602001600015158152602001611dc4611e50565b81525090565b828054611dd69061256d565b90600052602060002090601f016020900481019282611df85760008555611e3f565b82601f10611e1157805160ff1916838001178555611e3f565b82800160010185558215611e3f579182015b82811115611e3e578251825591602001919060010190611e23565b5b509050611e4c9190611e71565b5090565b60405180606001604052806060815260200160008152602001600081525090565b5b80821115611e8a576000816000905550600101611e72565b5090565b600081519050919050565b600082825260208201905092915050565b60005b83811015611ec8578082015181840152602081019050611ead565b83811115611ed7576000848401525b50505050565b6000601f19601f8301169050919050565b6000611ef982611e8e565b611f038185611e99565b9350611f13818560208601611eaa565b611f1c81611edd565b840191505092915050565b60006020820190508181036000830152611f418184611eee565b905092915050565b6000604051905090565b600080fd5b600080fd5b600073ffffffffffffffffffffffffffffffffffffffff82169050919050565b6000611f8882611f5d565b9050919050565b611f9881611f7d565b8114611fa357600080fd5b50565b600081359050611fb581611f8f565b92915050565b6000819050919050565b611fce81611fbb565b8114611fd957600080fd5b50565b600081359050611feb81611fc5565b92915050565b6000806040838503121561200857612007611f53565b5b600061201685828601611fa6565b925050602061202785828601611fdc565b9150509250929050565b60008115159050919050565b61204681612031565b82525050565b6000602082019050612061600083018461203d565b92915050565b61207081611fbb565b82525050565b600060208201905061208b6000830184612067565b92915050565b6000806000606084860312156120aa576120a9611f53565b5b60006120b886828701611fa6565b93505060206120c986828701611fa6565b92505060406120da86828701611fdc565b9150509250925092565b600060ff82169050919050565b6120fa816120e4565b82525050565b600060208201905061211560008301846120f1565b92915050565b600080fd5b6000606082840312156121365761213561211b565b5b81905092915050565b60006020828403121561215557612154611f53565b5b600082013567ffffffffffffffff81111561217357612172611f58565b5b61217f84828501612120565b91505092915050565b61219181611fbb565b82525050565b6121a081611f7d565b82525050565b6121af81612031565b82525050565b600082825260208201905092915050565b60006121d182611e8e565b6121db81856121b5565b93506121eb818560208601611eaa565b6121f481611edd565b840191505092915050565b6000606083016000830151848203600086015261221c82826121c6565b91505060208301516122316020860182612188565b5060408301516122446040860182612188565b508091505092915050565b600060c0830160008301516122676000860182612188565b50602083015161227a6020860182612197565b50604083015161228d6040860182612188565b5060608301516122a06060860182612188565b5060808301516122b360808601826121a6565b5060a083015184820360a08601526122cb82826121ff565b9150508091505092915050565b600060208201905081810360008301526122f2818461224f565b905092915050565b6000806040838503121561231157612310611f53565b5b600061231f85828601611fdc565b925050602061233085828601611fdc565b9150509250929050565b600081519050919050565b600082825260208201905092915050565b6000819050602082019050919050565b600060c08301600083015161237e6000860182612188565b5060208301516123916020860182612197565b5060408301516123a46040860182612188565b5060608301516123b76060860182612188565b5060808301516123ca60808601826121a6565b5060a083015184820360a08601526123e282826121ff565b9150508091505092915050565b60006123fb8383612366565b905092915050565b6000602082019050919050565b600061241b8261233a565b6124258185612345565b93508360208202850161243785612356565b8060005b85811015612473578484038952815161245485826123ef565b945061245f83612403565b925060208a0199505060018101905061243b565b50829750879550505050505092915050565b6000602082019050818103600083015261249f8184612410565b905092915050565b6000602082840312156124bd576124bc611f53565b5b60006124cb84828501611fa6565b91505092915050565b6124dd81611f7d565b82525050565b60006020820190506124f860008301846124d4565b92915050565b6000806040838503121561251557612514611f53565b5b600061252385828601611fa6565b925050602061253485828601611fa6565b9150509250929050565b7f4e487b7100000000000000000000000000000000000000000000000000000000600052602260045260246000fd5b6000600282049050600182168061258557607f821691505b602082108114156125995761259861253e565b5b50919050565b7f45524332303a207472616e7366657220616d6f756e742065786365656473206160008201527f6c6c6f77616e6365000000000000000000000000000000000000000000000000602082015250565b60006125fb602883611e99565b91506126068261259f565b604082019050919050565b6000602082019050818103600083015261262a816125ee565b9050919050565b7f4e487b7100000000000000000000000000000000000000000000000000000000600052601160045260246000fd5b600061266b82611fbb565b915061267683611fbb565b9250827fffffffffffffffffffffffffffffffffffffffffffffffffffffffffffffffff038211156126ab576126aa612631565b5b828201905092915050565b600080fd5b600080fd5b600080fd5b600080833560016020038436030381126126e2576126e16126b6565b5b80840192508235915067ffffffffffffffff821115612704576127036126bb565b5b6020830192506001820236038313156127205761271f6126c0565b5b509250929050565b7f496e76616c696420626574547970650000000000000000000000000000000000600082015250565b600061275e600f83611e99565b915061276982612728565b602082019050919050565b6000602082019050818103600083015261278d81612751565b9050919050565b600061279f82611fbb565b91506127aa83611fbb565b9250817fffffffffffffffffffffffffffffffffffffffffffffffffffffffffffffffff04831182151516156127e3576127e2612631565b5b828202905092915050565b60006127f982611fbb565b915061280483611fbb565b92508282101561281757612816612631565b5b828203905092915050565b600080fd5b7f4e487b7100000000000000000000000000000000000000000000000000000000600052604160045260246000fd5b61285f82611edd565b810181811067ffffffffffffffff8211171561287e5761287d612827565b5b80604052505050565b6000612891611f49565b905061289d8282612856565b919050565b600080fd5b600080fd5b600080fd5b600067ffffffffffffffff8211156128cc576128cb612827565b5b6128d582611edd565b9050602081019050919050565b82818337600083830152505050565b60006129046128ff846128b1565b612887565b9050828152602081018484840111156129205761291f6128ac565b5b61292b8482856128e2565b509392505050565b600082601f830112612948576129476128a7565b5b81356129588482602086016128f1565b91505092915050565b60006060828403121561297757612976612822565b5b6129816060612887565b9050600082013567ffffffffffffffff8111156129a1576129a06128a2565b5b6129ad84828501612933565b60008301525060206129c184828501611fdc565b60208301525060406129d584828501611fdc565b60408301525092915050565b60006129ed3683612961565b9050919050565b7f4e487b7100000000000000000000000000000000000000000000000000000000600052600160045260246000fd5b6000612a2e82611fbb565b91506000821415612a4257612a41612631565b5b600182039050919050565b7f4e487b7100000000000000000000000000000000000000000000000000000000600052603260045260246000fd5b6000612a8782611fbb565b91507fffffffffffffffffffffffffffffffffffffffffffffffffffffffffffffffff821415612aba57612ab9612631565b5b600182019050919050565b7f4f776e61626c653a2063616c6c6572206973206e6f7420746865206f776e6572600082015250565b6000612afb602083611e99565b9150612b0682612ac5565b602082019050919050565b60006020820190508181036000830152612b2a81612aee565b9050919050565b7f45524332303a2064656372656173656420616c6c6f77616e63652062656c6f7760008201527f207a65726f000000000000000000000000000000000000000000000000000000602082015250565b6000612b8d602583611e99565b9150612b9882612b31565b604082019050919050565b60006020820190508181036000830152612bbc81612b80565b9050919050565b7f4f776e61626c653a206e6577206f776e657220697320746865207a65726f206160008201527f6464726573730000000000000000000000000000000000000000000000000000602082015250565b6000612c1f602683611e99565b9150612c2a82612bc3565b604082019050919050565b60006020820190508181036000830152612c4e81612c12565b9050919050565b7f45524332303a20617070726f76652066726f6d20746865207a65726f2061646460008201527f7265737300000000000000000000000000000000000000000000000000000000602082015250565b6000612cb1602483611e99565b9150612cbc82612c55565b604082019050919050565b60006020820190508181036000830152612ce081612ca4565b9050919050565b7f45524332303a20617070726f766520746f20746865207a65726f20616464726560008201527f7373000000000000000000000000000000000000000000000000000000000000602082015250565b6000612d43602283611e99565b9150612d4e82612ce7565b604082019050919050565b60006020820190508181036000830152612d7281612d36565b9050919050565b7f45524332303a207472616e736665722066726f6d20746865207a65726f20616460008201527f6472657373000000000000000000000000000000000000000000000000000000602082015250565b6000612dd5602583611e99565b9150612de082612d79565b604082019050919050565b60006020820190508181036000830152612e0481612dc8565b9050919050565b7f45524332303a207472616e7366657220746f20746865207a65726f206164647260008201527f6573730000000000000000000000000000000000000000000000000000000000602082015250565b6000612e67602383611e99565b9150612e7282612e0b565b604082019050919050565b60006020820190508181036000830152612e9681612e5a565b9050919050565b7f45524332303a207472616e7366657220616d6f756e742065786365656473206260008201527f616c616e63650000000000000000000000000000000000000000000000000000602082015250565b6000612ef9602683611e99565b9150612f0482612e9d565b604082019050919050565b60006020820190508181036000830152612f2881612eec565b9050919050565b7f496e73756666696369656e742042616c616e6365000000000000000000000000600082015250565b6000612f65601483611e99565b9150612f7082612f2f565b602082019050919050565b60006020820190508181036000830152612f9481612f58565b9050919050565b6000819050919050565b612fb6612fb182611fbb565b612f9b565b82525050565b6000612fc88285612fa5565b602082019150612fd88284612fa5565b6020820191508190509392505050565b7f4e487b7100000000000000000000000000000000000000000000000000000000600052601260045260246000fd5b600061302282611fbb565b915061302d83611fbb565b92508261303d5761303c612fe8565b5b828206905092915050565b600081905092915050565b600061305e82611e8e565b6130688185613048565b9350613078818560208601611eaa565b80840191505092915050565b60006130908284613053565b915081905092915050565b7f45524332303a206d696e7420746f20746865207a65726f206164647265737300600082015250565b60006130d1601f83611e99565b91506130dc8261309b565b602082019050919050565b60006020820190508181036000830152613100816130c4565b9050919050565b7f45524332303a206275726e2066726f6d20746865207a65726f2061646472657360008201527f7300000000000000000000000000000000000000000000000000000000000000602082015250565b6000613163602183611e99565b915061316e82613107565b604082019050919050565b6000602082019050818103600083015261319281613156565b9050919050565b7f45524332303a206275726e20616d6f756e7420657863656564732062616c616e60008201527f6365000000000000000000000000000000000000000000000000000000000000602082015250565b60006131f5602283611e99565b915061320082613199565b604082019050919050565b60006020820190508181036000830152613224816131e8565b9050919050565b600061323682611fbb565b915061324183611fbb565b92508261325157613250612fe8565b5b82820490509291505056fea2646970667358221220079e69ff667b23a37fc44dda0a3d3397f6180654f39ad4568f78b5342d8ec49464736f6c634300080a0033",
  "immutableReferences": {},
  "source": "// SPDX-License-Identifier: MIT\r\npragma solidity ^0.8.0;\r\n\r\nimport \"@openzeppelin/contracts/token/ERC20/ERC20.sol\";\r\nimport \"@openzeppelin/contracts/access/Ownable.sol\";\r\n\r\ncontract CasinoDiceToken is ERC20, Ownable {\r\n\r\n    struct BetRequest {\r\n        string betType;\r\n        uint betValue;\r\n        uint256 betToken;\r\n    }\r\n    \r\n    struct Game {\r\n        uint256 gameId;\r\n        address player;\r\n        uint date;\r\n        uint result;\r\n        bool win;\r\n        BetRequest betRequest;\r\n    }\r\n\r\n\r\n        \r\n    event WithdrawSuccessful(address indexed from, uint256 amount);\r\n    event xxx(address indexed from, BetRequest betRequest);\r\n    event TopupSuccessful(address indexed from, uint256 amount);\r\n    event GameResult(address indexed from, Game game);\r\n\r\n    uint256 private exchangeRate = 1000;\r\n\r\n    uint256 private _betFee;\r\n    uint256 private currentGameId;\r\n    Game[] private games;\r\n\r\n    constructor() ERC20(\"Casino Dice Token\", \"CDT\") payable{\r\n        _mint(msg.sender, 1000 * (10**uint256(decimals())));\r\n\r\n        _betFee = 5 * (10**uint256(decimals()-1));\r\n    }\r\n\r\n    function _preValidateBuy(address _sender, uint256 _weiAmount) internal pure\r\n    {\r\n        require(_sender != address(0));\r\n        require(_weiAmount != 0);\r\n    }\r\n\r\n    function _preValidateRoll(address _sender, uint256 _tokenAmount) internal view\r\n    {\r\n        require(_sender != address(0));\r\n        uint256 balance = balanceOf(msg.sender);\r\n        require(balance >= _tokenAmount, \"Insufficient Balance\");\r\n    }\r\n\r\n    function _getTokenAmount(uint256 _weiAmount) internal view returns (uint256)\r\n    {\r\n        return _weiAmount * exchangeRate;\r\n    }\r\n\r\n    function _getEthAmount(uint256 _cdtAmount) internal view returns (uint256) {\r\n        return _cdtAmount / exchangeRate;\r\n    }\r\n\r\n    function buy() external payable {\r\n        // uint minAmount = 1 * (10 ** uint256(decimals() - 3));\r\n        // assert(msg.value >  minAmount);\r\n        _preValidateBuy(msg.sender, msg.value);\r\n        uint256 tokenAmount = _getTokenAmount(msg.value);\r\n\r\n        _mint(msg.sender, tokenAmount);\r\n        emit TopupSuccessful(msg.sender, tokenAmount);\r\n    }\r\n\r\n    function withdraw() external {\r\n        uint256 balance = balanceOf(msg.sender);\r\n        assert(balance > 0);\r\n        _burn(msg.sender, balance);\r\n        uint256 ethAmount = _getEthAmount(balance);\r\n        payable(msg.sender).transfer(ethAmount);\r\n        \r\n        emit WithdrawSuccessful(msg.sender, balance);\r\n    }\r\n\r\n\r\n    function roll(BetRequest calldata betRequest) external returns (Game memory game) {\r\n        \r\n        _preValidateRoll(msg.sender, betRequest.betToken);\r\n        uint random = _triggerRandom();\r\n        bool isBigRandom = random >=4 ? true : false;\r\n        bool win = false;\r\n        uint256 betFee = getBetFee();\r\n        uint winMultiplier = 1;\r\n        if(_compareString(betRequest.betType,\"lowHigh\")) {\r\n            bool isBigAnswer = betRequest.betValue == 1 ? true : false;\r\n            win = isBigAnswer == isBigRandom ? true : false;\r\n        }\r\n        else if(_compareString(betRequest.betType,\"guessNumber\")) {\r\n            win = betRequest.betValue == random ? true : false;\r\n            winMultiplier = 6;\r\n        }\r\n        else {\r\n            require(false, \"Invalid betType\");\r\n        }\r\n\r\n        if(win) {\r\n            _mint(msg.sender, (betRequest.betToken * winMultiplier) - betFee);\r\n        } else {\r\n            _burn(msg.sender, betRequest.betToken + betFee);\r\n        }\r\n        \r\n        game = Game(currentGameId, msg.sender, block.timestamp, random, win, betRequest);\r\n        games.push(game);\r\n        currentGameId = currentGameId + 1;\r\n\r\n        emit GameResult(msg.sender, game);\r\n        \r\n    }\r\n\r\n\r\n\r\n    function paginatedGames(uint _resultsPerPage, uint _page) external view returns (Game[] memory) {\r\n        \r\n        uint256 count = games.length;\r\n\r\n        if(count==0) {\r\n            return new Game[](0);\r\n        }   \r\n\r\n        uint256 pageEnd = ((_page - 1) * _resultsPerPage);\r\n        \r\n        if(count > pageEnd) {\r\n          pageEnd = count - pageEnd;\r\n        } else {\r\n          pageEnd = count;\r\n        }\r\n\r\n        uint counter = 0;\r\n\r\n        uint arraySize = pageEnd > _resultsPerPage ? _resultsPerPage : pageEnd;\r\n        Game[] memory result = new Game[](arraySize);\r\n        while(counter<_resultsPerPage) {\r\n           pageEnd--;\r\n           result[counter] = games[pageEnd];\r\n           if(pageEnd == 0){\r\n             break;\r\n           }\r\n           \r\n           counter++;\r\n        }\r\n       \r\n        return result;\r\n    }\r\n    \r\n    function getBetFee() public view returns (uint256) {\r\n        return _betFee;\r\n    }\r\n\r\n    function _triggerRandom() internal view returns (uint256) {\r\n        uint random = uint(keccak256(abi.encodePacked(block.difficulty, block.timestamp)));\r\n        uint randomDice = random % 6;\r\n        return randomDice + 1;\r\n    }\r\n\r\n    function _compareString(string memory a, string memory b) internal pure returns (bool) {\r\n        return keccak256(abi.encodePacked(a))==keccak256(abi.encodePacked(b));\r\n    }\r\n}\r\n",
  "sourcePath": "c:\\workspace\\code\\blockchain-developer-bootcamp-final-project\\contracts\\CasinoDiceToken.sol",
  "compiler": {
    "name": "solc",
    "version": "0.8.10+commit.fc410830.Emscripten.clang"
  },
  "schemaVersion": "3.4.3",
  "updatedAt": "2021-11-24T15:03:23.896Z",
  "networkType": "ethereum",
  "devdoc": {
    "kind": "dev",
    "methods": {
      "allowance(address,address)": {
        "details": "See {IERC20-allowance}."
      },
      "approve(address,uint256)": {
        "details": "See {IERC20-approve}. Requirements: - `spender` cannot be the zero address."
      },
      "balanceOf(address)": {
        "details": "See {IERC20-balanceOf}."
      },
      "decimals()": {
        "details": "Returns the number of decimals used to get its user representation. For example, if `decimals` equals `2`, a balance of `505` tokens should be displayed to a user as `5.05` (`505 / 10 ** 2`). Tokens usually opt for a value of 18, imitating the relationship between Ether and Wei. This is the value {ERC20} uses, unless this function is overridden; NOTE: This information is only used for _display_ purposes: it in no way affects any of the arithmetic of the contract, including {IERC20-balanceOf} and {IERC20-transfer}."
      },
      "decreaseAllowance(address,uint256)": {
        "details": "Atomically decreases the allowance granted to `spender` by the caller. This is an alternative to {approve} that can be used as a mitigation for problems described in {IERC20-approve}. Emits an {Approval} event indicating the updated allowance. Requirements: - `spender` cannot be the zero address. - `spender` must have allowance for the caller of at least `subtractedValue`."
      },
      "increaseAllowance(address,uint256)": {
        "details": "Atomically increases the allowance granted to `spender` by the caller. This is an alternative to {approve} that can be used as a mitigation for problems described in {IERC20-approve}. Emits an {Approval} event indicating the updated allowance. Requirements: - `spender` cannot be the zero address."
      },
      "name()": {
        "details": "Returns the name of the token."
      },
      "owner()": {
        "details": "Returns the address of the current owner."
      },
      "renounceOwnership()": {
        "details": "Leaves the contract without owner. It will not be possible to call `onlyOwner` functions anymore. Can only be called by the current owner. NOTE: Renouncing ownership will leave the contract without an owner, thereby removing any functionality that is only available to the owner."
      },
      "symbol()": {
        "details": "Returns the symbol of the token, usually a shorter version of the name."
      },
      "totalSupply()": {
        "details": "See {IERC20-totalSupply}."
      },
      "transfer(address,uint256)": {
        "details": "See {IERC20-transfer}. Requirements: - `recipient` cannot be the zero address. - the caller must have a balance of at least `amount`."
      },
      "transferFrom(address,address,uint256)": {
        "details": "See {IERC20-transferFrom}. Emits an {Approval} event indicating the updated allowance. This is not required by the EIP. See the note at the beginning of {ERC20}. Requirements: - `sender` and `recipient` cannot be the zero address. - `sender` must have a balance of at least `amount`. - the caller must have allowance for ``sender``'s tokens of at least `amount`."
      },
      "transferOwnership(address)": {
        "details": "Transfers ownership of the contract to a new account (`newOwner`). Can only be called by the current owner."
      }
    },
    "version": 1
  },
  "userdoc": {
    "kind": "user",
    "methods": {},
    "version": 1
  }
}