{
  "contractName": "CasinoDiceToken",
  "abi": [
    {
      "inputs": [],
      "stateMutability": "payable",
      "type": "constructor",
      "payable": true
    },
    {
      "anonymous": false,
      "inputs": [
        {
          "indexed": true,
          "internalType": "address",
          "name": "owner",
          "type": "address"
        },
        {
          "indexed": true,
          "internalType": "address",
          "name": "spender",
          "type": "address"
        },
        {
          "indexed": false,
          "internalType": "uint256",
          "name": "value",
          "type": "uint256"
        }
      ],
      "name": "Approval",
      "type": "event"
    },
    {
      "anonymous": false,
      "inputs": [
        {
          "indexed": true,
          "internalType": "address",
          "name": "from",
          "type": "address"
        },
        {
          "components": [
            {
              "internalType": "uint256",
              "name": "gameId",
              "type": "uint256"
            },
            {
              "internalType": "address",
              "name": "player",
              "type": "address"
            },
            {
              "internalType": "uint256",
              "name": "date",
              "type": "uint256"
            },
            {
              "internalType": "uint256",
              "name": "result",
              "type": "uint256"
            },
            {
              "internalType": "bool",
              "name": "win",
              "type": "bool"
            },
            {
              "components": [
                {
                  "internalType": "string",
                  "name": "betType",
                  "type": "string"
                },
                {
                  "internalType": "uint256",
                  "name": "betValue",
                  "type": "uint256"
                },
                {
                  "internalType": "uint256",
                  "name": "betToken",
                  "type": "uint256"
                }
              ],
              "internalType": "struct CasinoDiceToken.BetRequest",
              "name": "betRequest",
              "type": "tuple"
            }
          ],
          "indexed": false,
          "internalType": "struct CasinoDiceToken.Game",
          "name": "game",
          "type": "tuple"
        }
      ],
      "name": "GameResult",
      "type": "event"
    },
    {
      "anonymous": false,
      "inputs": [
        {
          "indexed": true,
          "internalType": "address",
          "name": "previousOwner",
          "type": "address"
        },
        {
          "indexed": true,
          "internalType": "address",
          "name": "newOwner",
          "type": "address"
        }
      ],
      "name": "OwnershipTransferred",
      "type": "event"
    },
    {
      "anonymous": false,
      "inputs": [
        {
          "indexed": true,
          "internalType": "address",
          "name": "from",
          "type": "address"
        },
        {
          "indexed": false,
          "internalType": "uint256",
          "name": "amount",
          "type": "uint256"
        }
      ],
      "name": "TopupSuccessful",
      "type": "event"
    },
    {
      "anonymous": false,
      "inputs": [
        {
          "indexed": true,
          "internalType": "address",
          "name": "from",
          "type": "address"
        },
        {
          "indexed": true,
          "internalType": "address",
          "name": "to",
          "type": "address"
        },
        {
          "indexed": false,
          "internalType": "uint256",
          "name": "value",
          "type": "uint256"
        }
      ],
      "name": "Transfer",
      "type": "event"
    },
    {
      "anonymous": false,
      "inputs": [
        {
          "indexed": true,
          "internalType": "address",
          "name": "from",
          "type": "address"
        },
        {
          "indexed": false,
          "internalType": "uint256",
          "name": "amount",
          "type": "uint256"
        }
      ],
      "name": "UpdateBetFeeSuccessful",
      "type": "event"
    },
    {
      "anonymous": false,
      "inputs": [
        {
          "indexed": true,
          "internalType": "address",
          "name": "from",
          "type": "address"
        },
        {
          "indexed": false,
          "internalType": "uint256",
          "name": "amount",
          "type": "uint256"
        }
      ],
      "name": "WithdrawSuccessful",
      "type": "event"
    },
    {
      "inputs": [
        {
          "internalType": "address",
          "name": "owner",
          "type": "address"
        },
        {
          "internalType": "address",
          "name": "spender",
          "type": "address"
        }
      ],
      "name": "allowance",
      "outputs": [
        {
          "internalType": "uint256",
          "name": "",
          "type": "uint256"
        }
      ],
      "stateMutability": "view",
      "type": "function",
      "constant": true
    },
    {
      "inputs": [
        {
          "internalType": "address",
          "name": "spender",
          "type": "address"
        },
        {
          "internalType": "uint256",
          "name": "amount",
          "type": "uint256"
        }
      ],
      "name": "approve",
      "outputs": [
        {
          "internalType": "bool",
          "name": "",
          "type": "bool"
        }
      ],
      "stateMutability": "nonpayable",
      "type": "function"
    },
    {
      "inputs": [
        {
          "internalType": "address",
          "name": "account",
          "type": "address"
        }
      ],
      "name": "balanceOf",
      "outputs": [
        {
          "internalType": "uint256",
          "name": "",
          "type": "uint256"
        }
      ],
      "stateMutability": "view",
      "type": "function",
      "constant": true
    },
    {
      "inputs": [],
      "name": "decimals",
      "outputs": [
        {
          "internalType": "uint8",
          "name": "",
          "type": "uint8"
        }
      ],
      "stateMutability": "view",
      "type": "function",
      "constant": true
    },
    {
      "inputs": [
        {
          "internalType": "address",
          "name": "spender",
          "type": "address"
        },
        {
          "internalType": "uint256",
          "name": "subtractedValue",
          "type": "uint256"
        }
      ],
      "name": "decreaseAllowance",
      "outputs": [
        {
          "internalType": "bool",
          "name": "",
          "type": "bool"
        }
      ],
      "stateMutability": "nonpayable",
      "type": "function"
    },
    {
      "inputs": [
        {
          "internalType": "address",
          "name": "spender",
          "type": "address"
        },
        {
          "internalType": "uint256",
          "name": "addedValue",
          "type": "uint256"
        }
      ],
      "name": "increaseAllowance",
      "outputs": [
        {
          "internalType": "bool",
          "name": "",
          "type": "bool"
        }
      ],
      "stateMutability": "nonpayable",
      "type": "function"
    },
    {
      "inputs": [],
      "name": "name",
      "outputs": [
        {
          "internalType": "string",
          "name": "",
          "type": "string"
        }
      ],
      "stateMutability": "view",
      "type": "function",
      "constant": true
    },
    {
      "inputs": [],
      "name": "owner",
      "outputs": [
        {
          "internalType": "address",
          "name": "",
          "type": "address"
        }
      ],
      "stateMutability": "view",
      "type": "function",
      "constant": true
    },
    {
      "inputs": [],
      "name": "renounceOwnership",
      "outputs": [],
      "stateMutability": "nonpayable",
      "type": "function"
    },
    {
      "inputs": [],
      "name": "symbol",
      "outputs": [
        {
          "internalType": "string",
          "name": "",
          "type": "string"
        }
      ],
      "stateMutability": "view",
      "type": "function",
      "constant": true
    },
    {
      "inputs": [],
      "name": "totalSupply",
      "outputs": [
        {
          "internalType": "uint256",
          "name": "",
          "type": "uint256"
        }
      ],
      "stateMutability": "view",
      "type": "function",
      "constant": true
    },
    {
      "inputs": [
        {
          "internalType": "address",
          "name": "recipient",
          "type": "address"
        },
        {
          "internalType": "uint256",
          "name": "amount",
          "type": "uint256"
        }
      ],
      "name": "transfer",
      "outputs": [
        {
          "internalType": "bool",
          "name": "",
          "type": "bool"
        }
      ],
      "stateMutability": "nonpayable",
      "type": "function"
    },
    {
      "inputs": [
        {
          "internalType": "address",
          "name": "sender",
          "type": "address"
        },
        {
          "internalType": "address",
          "name": "recipient",
          "type": "address"
        },
        {
          "internalType": "uint256",
          "name": "amount",
          "type": "uint256"
        }
      ],
      "name": "transferFrom",
      "outputs": [
        {
          "internalType": "bool",
          "name": "",
          "type": "bool"
        }
      ],
      "stateMutability": "nonpayable",
      "type": "function"
    },
    {
      "inputs": [
        {
          "internalType": "address",
          "name": "newOwner",
          "type": "address"
        }
      ],
      "name": "transferOwnership",
      "outputs": [],
      "stateMutability": "nonpayable",
      "type": "function"
    },
    {
      "inputs": [
        {
          "internalType": "uint256",
          "name": "_tokenAmount",
          "type": "uint256"
        }
      ],
      "name": "updateBetFee",
      "outputs": [],
      "stateMutability": "nonpayable",
      "type": "function"
    },
    {
      "inputs": [],
      "name": "buy",
      "outputs": [],
      "stateMutability": "payable",
      "type": "function",
      "payable": true
    },
    {
      "inputs": [],
      "name": "withdraw",
      "outputs": [],
      "stateMutability": "nonpayable",
      "type": "function"
    },
    {
      "inputs": [
        {
          "components": [
            {
              "internalType": "string",
              "name": "betType",
              "type": "string"
            },
            {
              "internalType": "uint256",
              "name": "betValue",
              "type": "uint256"
            },
            {
              "internalType": "uint256",
              "name": "betToken",
              "type": "uint256"
            }
          ],
          "internalType": "struct CasinoDiceToken.BetRequest",
          "name": "betRequest",
          "type": "tuple"
        }
      ],
      "name": "roll",
      "outputs": [
        {
          "components": [
            {
              "internalType": "uint256",
              "name": "gameId",
              "type": "uint256"
            },
            {
              "internalType": "address",
              "name": "player",
              "type": "address"
            },
            {
              "internalType": "uint256",
              "name": "date",
              "type": "uint256"
            },
            {
              "internalType": "uint256",
              "name": "result",
              "type": "uint256"
            },
            {
              "internalType": "bool",
              "name": "win",
              "type": "bool"
            },
            {
              "components": [
                {
                  "internalType": "string",
                  "name": "betType",
                  "type": "string"
                },
                {
                  "internalType": "uint256",
                  "name": "betValue",
                  "type": "uint256"
                },
                {
                  "internalType": "uint256",
                  "name": "betToken",
                  "type": "uint256"
                }
              ],
              "internalType": "struct CasinoDiceToken.BetRequest",
              "name": "betRequest",
              "type": "tuple"
            }
          ],
          "internalType": "struct CasinoDiceToken.Game",
          "name": "game",
          "type": "tuple"
        }
      ],
      "stateMutability": "nonpayable",
      "type": "function"
    },
    {
      "inputs": [
        {
          "internalType": "uint256",
          "name": "_resultsPerPage",
          "type": "uint256"
        },
        {
          "internalType": "uint256",
          "name": "_page",
          "type": "uint256"
        }
      ],
      "name": "paginatedGames",
      "outputs": [
        {
          "components": [
            {
              "internalType": "uint256",
              "name": "gameId",
              "type": "uint256"
            },
            {
              "internalType": "address",
              "name": "player",
              "type": "address"
            },
            {
              "internalType": "uint256",
              "name": "date",
              "type": "uint256"
            },
            {
              "internalType": "uint256",
              "name": "result",
              "type": "uint256"
            },
            {
              "internalType": "bool",
              "name": "win",
              "type": "bool"
            },
            {
              "components": [
                {
                  "internalType": "string",
                  "name": "betType",
                  "type": "string"
                },
                {
                  "internalType": "uint256",
                  "name": "betValue",
                  "type": "uint256"
                },
                {
                  "internalType": "uint256",
                  "name": "betToken",
                  "type": "uint256"
                }
              ],
              "internalType": "struct CasinoDiceToken.BetRequest",
              "name": "betRequest",
              "type": "tuple"
            }
          ],
          "internalType": "struct CasinoDiceToken.Game[]",
          "name": "",
          "type": "tuple[]"
        }
      ],
      "stateMutability": "view",
      "type": "function",
      "constant": true
    },
    {
      "inputs": [],
      "name": "getBetFee",
      "outputs": [
        {
          "internalType": "uint256",
          "name": "",
          "type": "uint256"
        }
      ],
      "stateMutability": "view",
      "type": "function",
      "constant": true
    }
  ],
  "bytecode": "0x60806040526103e86006556040518060400160405280601181526020017f436173696e6f204469636520546f6b656e0000000000000000000000000000008152506040518060400160405280600381526020017f434454000000000000000000000000000000000000000000000000000000000081525081600390805190602001906200008e929190620003ae565b508060049080519060200190620000a7929190620003ae565b505050620000ca620000be6200015460201b60201c565b6200015c60201b60201c565b6200010b33620000df6200022260201b60201c565b60ff16600a620000f09190620005eb565b6103e8620000ff91906200063c565b6200022b60201b60201c565b60016200011d6200022260201b60201c565b620001299190620006aa565b60ff16600a6200013a9190620005eb565b60056200014891906200063c565b60078190555062000858565b600033905090565b6000600560009054906101000a900473ffffffffffffffffffffffffffffffffffffffff16905081600560006101000a81548173ffffffffffffffffffffffffffffffffffffffff021916908373ffffffffffffffffffffffffffffffffffffffff1602179055508173ffffffffffffffffffffffffffffffffffffffff168173ffffffffffffffffffffffffffffffffffffffff167f8be0079c531659141344cd1fd0a4f28419497f9722a3daafe3b4186f6b6457e060405160405180910390a35050565b60006012905090565b600073ffffffffffffffffffffffffffffffffffffffff168273ffffffffffffffffffffffffffffffffffffffff1614156200029e576040517f08c379a0000000000000000000000000000000000000000000000000000000008152600401620002959062000746565b60405180910390fd5b620002b260008383620003a460201b60201c565b8060026000828254620002c6919062000768565b92505081905550806000808473ffffffffffffffffffffffffffffffffffffffff1673ffffffffffffffffffffffffffffffffffffffff16815260200190815260200160002060008282546200031d919062000768565b925050819055508173ffffffffffffffffffffffffffffffffffffffff16600073ffffffffffffffffffffffffffffffffffffffff167fddf252ad1be2c89b69c2b068fc378daa952ba7f163c4a11628f55a4df523b3ef83604051620003849190620007d6565b60405180910390a3620003a060008383620003a960201b60201c565b5050565b505050565b505050565b828054620003bc9062000822565b90600052602060002090601f016020900481019282620003e057600085556200042c565b82601f10620003fb57805160ff19168380011785556200042c565b828001600101855582156200042c579182015b828111156200042b5782518255916020019190600101906200040e565b5b5090506200043b91906200043f565b5090565b5b808211156200045a57600081600090555060010162000440565b5090565b7f4e487b7100000000000000000000000000000000000000000000000000000000600052601160045260246000fd5b60008160011c9050919050565b6000808291508390505b6001851115620004ec57808604811115620004c457620004c36200045e565b5b6001851615620004d45780820291505b8081029050620004e4856200048d565b9450620004a4565b94509492505050565b600082620005075760019050620005da565b81620005175760009050620005da565b81600181146200053057600281146200053b5762000571565b6001915050620005da565b60ff84111562000550576200054f6200045e565b5b8360020a9150848211156200056a57620005696200045e565b5b50620005da565b5060208310610133831016604e8410600b8410161715620005ab5782820a905083811115620005a557620005a46200045e565b5b620005da565b620005ba84848460016200049a565b92509050818404811115620005d457620005d36200045e565b5b81810290505b9392505050565b6000819050919050565b6000620005f882620005e1565b91506200060583620005e1565b9250620006347fffffffffffffffffffffffffffffffffffffffffffffffffffffffffffffffff8484620004f5565b905092915050565b60006200064982620005e1565b91506200065683620005e1565b9250817fffffffffffffffffffffffffffffffffffffffffffffffffffffffffffffffff04831182151516156200069257620006916200045e565b5b828202905092915050565b600060ff82169050919050565b6000620006b7826200069d565b9150620006c4836200069d565b925082821015620006da57620006d96200045e565b5b828203905092915050565b600082825260208201905092915050565b7f45524332303a206d696e7420746f20746865207a65726f206164647265737300600082015250565b60006200072e601f83620006e5565b91506200073b82620006f6565b602082019050919050565b6000602082019050818103600083015262000761816200071f565b9050919050565b60006200077582620005e1565b91506200078283620005e1565b9250827fffffffffffffffffffffffffffffffffffffffffffffffffffffffffffffffff03821115620007ba57620007b96200045e565b5b828201905092915050565b620007d081620005e1565b82525050565b6000602082019050620007ed6000830184620007c5565b92915050565b7f4e487b7100000000000000000000000000000000000000000000000000000000600052602260045260246000fd5b600060028204905060018216806200083b57607f821691505b60208210811415620008525762000851620007f3565b5b50919050565b6133c780620008686000396000f3fe60806040526004361061011f5760003560e01c8063429d2861116100a0578063a457c2d711610064578063a457c2d7146103eb578063a6f2ae3a14610428578063a9059cbb14610432578063dd62ed3e1461046f578063f2fde38b146104ac5761011f565b8063429d28611461030457806370a0823114610341578063715018a61461037e5780638da5cb5b1461039557806395d89b41146103c05761011f565b806323b872dd116100e757806323b872dd1461020b578063313ce5671461024857806339509351146102735780633a3565c9146102b05780633ccfd60b146102ed5761011f565b806306fdde0314610124578063095ea7b31461014f5780630988c2231461018c57806318160ddd146101b757806321e18300146101e2575b600080fd5b34801561013057600080fd5b506101396104d5565b604051610146919061202f565b60405180910390f35b34801561015b57600080fd5b50610176600480360381019061017191906120f9565b610567565b6040516101839190612154565b60405180910390f35b34801561019857600080fd5b506101a1610585565b6040516101ae919061217e565b60405180910390f35b3480156101c357600080fd5b506101cc61058f565b6040516101d9919061217e565b60405180910390f35b3480156101ee57600080fd5b5061020960048036038101906102049190612199565b610599565b005b34801561021757600080fd5b50610232600480360381019061022d91906121c6565b61066d565b60405161023f9190612154565b60405180910390f35b34801561025457600080fd5b5061025d610765565b60405161026a9190612235565b60405180910390f35b34801561027f57600080fd5b5061029a600480360381019061029591906120f9565b61076e565b6040516102a79190612154565b60405180910390f35b3480156102bc57600080fd5b506102d760048036038101906102d29190612274565b61081a565b6040516102e4919061240d565b60405180910390f35b3480156102f957600080fd5b50610302610c23565b005b34801561031057600080fd5b5061032b6004803603810190610326919061242f565b610cf1565b60405161033891906125ba565b60405180910390f35b34801561034d57600080fd5b50610368600480360381019061036391906125dc565b610fe5565b604051610375919061217e565b60405180910390f35b34801561038a57600080fd5b5061039361102d565b005b3480156103a157600080fd5b506103aa6110b5565b6040516103b79190612618565b60405180910390f35b3480156103cc57600080fd5b506103d56110df565b6040516103e2919061202f565b60405180910390f35b3480156103f757600080fd5b50610412600480360381019061040d91906120f9565b611171565b60405161041f9190612154565b60405180910390f35b61043061125c565b005b34801561043e57600080fd5b50610459600480360381019061045491906120f9565b6112ce565b6040516104669190612154565b60405180910390f35b34801561047b57600080fd5b5061049660048036038101906104919190612633565b6112ec565b6040516104a3919061217e565b60405180910390f35b3480156104b857600080fd5b506104d360048036038101906104ce91906125dc565b611373565b005b6060600380546104e4906126a2565b80601f0160208091040260200160405190810160405280929190818152602001828054610510906126a2565b801561055d5780601f106105325761010080835404028352916020019161055d565b820191906000526020600020905b81548152906001019060200180831161054057829003601f168201915b5050505050905090565b600061057b61057461146b565b8484611473565b6001905092915050565b6000600754905090565b6000600254905090565b6105a161146b565b73ffffffffffffffffffffffffffffffffffffffff166105bf6110b5565b73ffffffffffffffffffffffffffffffffffffffff1614610615576040517f08c379a000000000000000000000000000000000000000000000000000000000815260040161060c90612720565b60405180910390fd5b806007819055503373ffffffffffffffffffffffffffffffffffffffff167f3ccc1b0be4f08b8c32f0a1027f27578b75f0f32688f548012e495be25c10120282604051610662919061217e565b60405180910390a250565b600061067a84848461163e565b6000600160008673ffffffffffffffffffffffffffffffffffffffff1673ffffffffffffffffffffffffffffffffffffffff16815260200190815260200160002060006106c561146b565b73ffffffffffffffffffffffffffffffffffffffff1673ffffffffffffffffffffffffffffffffffffffff16815260200190815260200160002054905082811015610745576040517f08c379a000000000000000000000000000000000000000000000000000000000815260040161073c906127b2565b60405180910390fd5b6107598561075161146b565b858403611473565b60019150509392505050565b60006012905090565b600061081061077b61146b565b84846001600061078961146b565b73ffffffffffffffffffffffffffffffffffffffff1673ffffffffffffffffffffffffffffffffffffffff16815260200190815260200160002060008873ffffffffffffffffffffffffffffffffffffffff1673ffffffffffffffffffffffffffffffffffffffff1681526020019081526020016000205461080b9190612801565b611473565b6001905092915050565b610822611e7e565b6108303383604001356118bf565b600061083a61194e565b90506000600482101561084e576000610851565b60015b905060008061085e610585565b90506000600190506108f78780600001906108799190612866565b8080601f016020809104026020016040519081016040528093929190818152602001838380828437600081840152601f19601f820116905080830192505050505050506040518060400160405280600781526020017f6c6f7748696768000000000000000000000000000000000000000000000000008152506119a4565b156109335760006001886020013514610911576000610914565b60015b90508415158115151461092857600061092b565b60015b935050610a2c565b6109c48780600001906109469190612866565b8080601f016020809104026020016040519081016040528093929190818152602001838380828437600081840152601f19601f820116905080830192505050505050506040518060400160405280600b81526020017f67756573734e756d6265720000000000000000000000000000000000000000008152506119a4565b156109e957848760200135146109db5760006109de565b60015b925060069050610a2b565b6000610a2a576040517f08c379a0000000000000000000000000000000000000000000000000000000008152600401610a2190612915565b60405180910390fd5b5b5b8215610a5b57610a563383838a60400135610a479190612935565b610a51919061298f565b6119fd565b610a75565b610a7433838960400135610a6f9190612801565b611b5d565b5b6040518060c0016040528060085481526020013373ffffffffffffffffffffffffffffffffffffffff168152602001428152602001868152602001841515815260200188610ac290612b82565b815250955060098690806001815401808255809150506001900390600052602060002090600802016000909190919091506000820151816000015560208201518160010160006101000a81548173ffffffffffffffffffffffffffffffffffffffff021916908373ffffffffffffffffffffffffffffffffffffffff160217905550604082015181600201556060820151816003015560808201518160040160006101000a81548160ff02191690831515021790555060a0820151816005016000820151816000019080519060200190610b9d929190611ed2565b506020820151816001015560408201518160020155505050506001600854610bc59190612801565b6008819055503373ffffffffffffffffffffffffffffffffffffffff167f9ca88a5edf4353be1cedd3c29409d7fdc786a9a393284bdb6d8cdf687a27593287604051610c11919061240d565b60405180910390a25050505050919050565b6000610c2e33610fe5565b905060008111610c4157610c40612b95565b5b610c4b3382611b5d565b6000610c5682611d34565b90503373ffffffffffffffffffffffffffffffffffffffff166108fc829081150290604051600060405180830381858888f19350505050158015610c9e573d6000803e3d6000fd5b503373ffffffffffffffffffffffffffffffffffffffff167f84e742a3ea03623687a5febaa797636d728230721d4b3d1405d19fbbc16298d983604051610ce5919061217e565b60405180910390a25050565b6060600060098054905090506000811415610d6357600067ffffffffffffffff811115610d2157610d206129c8565b5b604051908082528060200260200182016040528015610d5a57816020015b610d47611e7e565b815260200190600190039081610d3f5790505b50915050610fdf565b600084600185610d73919061298f565b610d7d9190612935565b905080821115610d9a578082610d93919061298f565b9050610d9e565b8190505b600080868311610dae5782610db0565b865b905060008167ffffffffffffffff811115610dce57610dcd6129c8565b5b604051908082528060200260200182016040528015610e0757816020015b610df4611e7e565b815260200190600190039081610dec5790505b5090505b87831015610fd6578380610e1e90612bc4565b94505060098481548110610e3557610e34612bee565b5b90600052602060002090600802016040518060c0016040529081600082015481526020016001820160009054906101000a900473ffffffffffffffffffffffffffffffffffffffff1673ffffffffffffffffffffffffffffffffffffffff1673ffffffffffffffffffffffffffffffffffffffff16815260200160028201548152602001600382015481526020016004820160009054906101000a900460ff1615151515815260200160058201604051806060016040529081600082018054610efd906126a2565b80601f0160208091040260200160405190810160405280929190818152602001828054610f29906126a2565b8015610f765780601f10610f4b57610100808354040283529160200191610f76565b820191906000526020600020905b815481529060010190602001808311610f5957829003601f168201915b505050505081526020016001820154815260200160028201548152505081525050818481518110610faa57610fa9612bee565b5b60200260200101819052506000841415610fc357610fd6565b8280610fce90612c1d565b935050610e0b565b80955050505050505b92915050565b60008060008373ffffffffffffffffffffffffffffffffffffffff1673ffffffffffffffffffffffffffffffffffffffff168152602001908152602001600020549050919050565b61103561146b565b73ffffffffffffffffffffffffffffffffffffffff166110536110b5565b73ffffffffffffffffffffffffffffffffffffffff16146110a9576040517f08c379a00000000000000000000000000000000000000000000000000000000081526004016110a090612720565b60405180910390fd5b6110b36000611d4b565b565b6000600560009054906101000a900473ffffffffffffffffffffffffffffffffffffffff16905090565b6060600480546110ee906126a2565b80601f016020809104026020016040519081016040528092919081815260200182805461111a906126a2565b80156111675780601f1061113c57610100808354040283529160200191611167565b820191906000526020600020905b81548152906001019060200180831161114a57829003601f168201915b5050505050905090565b6000806001600061118061146b565b73ffffffffffffffffffffffffffffffffffffffff1673ffffffffffffffffffffffffffffffffffffffff16815260200190815260200160002060008573ffffffffffffffffffffffffffffffffffffffff1673ffffffffffffffffffffffffffffffffffffffff1681526020019081526020016000205490508281101561123d576040517f08c379a000000000000000000000000000000000000000000000000000000000815260040161123490612cd8565b60405180910390fd5b61125161124861146b565b85858403611473565b600191505092915050565b6112663334611e11565b600061127134611e5d565b905061127d33826119fd565b3373ffffffffffffffffffffffffffffffffffffffff167fbc3c393a91c73a771ce19c88a14e7504a6df38d1182b3faf12105a7b0e05cf40826040516112c3919061217e565b60405180910390a250565b60006112e26112db61146b565b848461163e565b6001905092915050565b6000600160008473ffffffffffffffffffffffffffffffffffffffff1673ffffffffffffffffffffffffffffffffffffffff16815260200190815260200160002060008373ffffffffffffffffffffffffffffffffffffffff1673ffffffffffffffffffffffffffffffffffffffff16815260200190815260200160002054905092915050565b61137b61146b565b73ffffffffffffffffffffffffffffffffffffffff166113996110b5565b73ffffffffffffffffffffffffffffffffffffffff16146113ef576040517f08c379a00000000000000000000000000000000000000000000000000000000081526004016113e690612720565b60405180910390fd5b600073ffffffffffffffffffffffffffffffffffffffff168173ffffffffffffffffffffffffffffffffffffffff16141561145f576040517f08c379a000000000000000000000000000000000000000000000000000000000815260040161145690612d6a565b60405180910390fd5b61146881611d4b565b50565b600033905090565b600073ffffffffffffffffffffffffffffffffffffffff168373ffffffffffffffffffffffffffffffffffffffff1614156114e3576040517f08c379a00000000000000000000000000000000000000000000000000000000081526004016114da90612dfc565b60405180910390fd5b600073ffffffffffffffffffffffffffffffffffffffff168273ffffffffffffffffffffffffffffffffffffffff161415611553576040517f08c379a000000000000000000000000000000000000000000000000000000000815260040161154a90612e8e565b60405180910390fd5b80600160008573ffffffffffffffffffffffffffffffffffffffff1673ffffffffffffffffffffffffffffffffffffffff16815260200190815260200160002060008473ffffffffffffffffffffffffffffffffffffffff1673ffffffffffffffffffffffffffffffffffffffff168152602001908152602001600020819055508173ffffffffffffffffffffffffffffffffffffffff168373ffffffffffffffffffffffffffffffffffffffff167f8c5be1e5ebec7d5bd14f71427d1e84f3dd0314c0f7b2291e5b200ac8c7c3b92583604051611631919061217e565b60405180910390a3505050565b600073ffffffffffffffffffffffffffffffffffffffff168373ffffffffffffffffffffffffffffffffffffffff1614156116ae576040517f08c379a00000000000000000000000000000000000000000000000000000000081526004016116a590612f20565b60405180910390fd5b600073ffffffffffffffffffffffffffffffffffffffff168273ffffffffffffffffffffffffffffffffffffffff16141561171e576040517f08c379a000000000000000000000000000000000000000000000000000000000815260040161171590612fb2565b60405180910390fd5b611729838383611e74565b60008060008573ffffffffffffffffffffffffffffffffffffffff1673ffffffffffffffffffffffffffffffffffffffff168152602001908152602001600020549050818110156117af576040517f08c379a00000000000000000000000000000000000000000000000000000000081526004016117a690613044565b60405180910390fd5b8181036000808673ffffffffffffffffffffffffffffffffffffffff1673ffffffffffffffffffffffffffffffffffffffff16815260200190815260200160002081905550816000808573ffffffffffffffffffffffffffffffffffffffff1673ffffffffffffffffffffffffffffffffffffffff16815260200190815260200160002060008282546118429190612801565b925050819055508273ffffffffffffffffffffffffffffffffffffffff168473ffffffffffffffffffffffffffffffffffffffff167fddf252ad1be2c89b69c2b068fc378daa952ba7f163c4a11628f55a4df523b3ef846040516118a6919061217e565b60405180910390a36118b9848484611e79565b50505050565b600073ffffffffffffffffffffffffffffffffffffffff168273ffffffffffffffffffffffffffffffffffffffff1614156118f957600080fd5b600061190433610fe5565b905081811015611949576040517f08c379a0000000000000000000000000000000000000000000000000000000008152600401611940906130b0565b60405180910390fd5b505050565b60008044426040516020016119649291906130f1565b6040516020818303038152906040528051906020012060001c9050600060068261198e919061314c565b905060018161199d9190612801565b9250505090565b6000816040516020016119b791906131b9565b60405160208183030381529060405280519060200120836040516020016119de91906131b9565b6040516020818303038152906040528051906020012014905092915050565b600073ffffffffffffffffffffffffffffffffffffffff168273ffffffffffffffffffffffffffffffffffffffff161415611a6d576040517f08c379a0000000000000000000000000000000000000000000000000000000008152600401611a649061321c565b60405180910390fd5b611a7960008383611e74565b8060026000828254611a8b9190612801565b92505081905550806000808473ffffffffffffffffffffffffffffffffffffffff1673ffffffffffffffffffffffffffffffffffffffff1681526020019081526020016000206000828254611ae09190612801565b925050819055508173ffffffffffffffffffffffffffffffffffffffff16600073ffffffffffffffffffffffffffffffffffffffff167fddf252ad1be2c89b69c2b068fc378daa952ba7f163c4a11628f55a4df523b3ef83604051611b45919061217e565b60405180910390a3611b5960008383611e79565b5050565b600073ffffffffffffffffffffffffffffffffffffffff168273ffffffffffffffffffffffffffffffffffffffff161415611bcd576040517f08c379a0000000000000000000000000000000000000000000000000000000008152600401611bc4906132ae565b60405180910390fd5b611bd982600083611e74565b60008060008473ffffffffffffffffffffffffffffffffffffffff1673ffffffffffffffffffffffffffffffffffffffff16815260200190815260200160002054905081811015611c5f576040517f08c379a0000000000000000000000000000000000000000000000000000000008152600401611c5690613340565b60405180910390fd5b8181036000808573ffffffffffffffffffffffffffffffffffffffff1673ffffffffffffffffffffffffffffffffffffffff168152602001908152602001600020819055508160026000828254611cb6919061298f565b92505081905550600073ffffffffffffffffffffffffffffffffffffffff168373ffffffffffffffffffffffffffffffffffffffff167fddf252ad1be2c89b69c2b068fc378daa952ba7f163c4a11628f55a4df523b3ef84604051611d1b919061217e565b60405180910390a3611d2f83600084611e79565b505050565b600060065482611d449190613360565b9050919050565b6000600560009054906101000a900473ffffffffffffffffffffffffffffffffffffffff16905081600560006101000a81548173ffffffffffffffffffffffffffffffffffffffff021916908373ffffffffffffffffffffffffffffffffffffffff1602179055508173ffffffffffffffffffffffffffffffffffffffff168173ffffffffffffffffffffffffffffffffffffffff167f8be0079c531659141344cd1fd0a4f28419497f9722a3daafe3b4186f6b6457e060405160405180910390a35050565b600073ffffffffffffffffffffffffffffffffffffffff168273ffffffffffffffffffffffffffffffffffffffff161415611e4b57600080fd5b6000811415611e5957600080fd5b5050565b600060065482611e6d9190612935565b9050919050565b505050565b505050565b6040518060c0016040528060008152602001600073ffffffffffffffffffffffffffffffffffffffff1681526020016000815260200160008152602001600015158152602001611ecc611f58565b81525090565b828054611ede906126a2565b90600052602060002090601f016020900481019282611f005760008555611f47565b82601f10611f1957805160ff1916838001178555611f47565b82800160010185558215611f47579182015b82811115611f46578251825591602001919060010190611f2b565b5b509050611f549190611f79565b5090565b60405180606001604052806060815260200160008152602001600081525090565b5b80821115611f92576000816000905550600101611f7a565b5090565b600081519050919050565b600082825260208201905092915050565b60005b83811015611fd0578082015181840152602081019050611fb5565b83811115611fdf576000848401525b50505050565b6000601f19601f8301169050919050565b600061200182611f96565b61200b8185611fa1565b935061201b818560208601611fb2565b61202481611fe5565b840191505092915050565b600060208201905081810360008301526120498184611ff6565b905092915050565b6000604051905090565b600080fd5b600080fd5b600073ffffffffffffffffffffffffffffffffffffffff82169050919050565b600061209082612065565b9050919050565b6120a081612085565b81146120ab57600080fd5b50565b6000813590506120bd81612097565b92915050565b6000819050919050565b6120d6816120c3565b81146120e157600080fd5b50565b6000813590506120f3816120cd565b92915050565b600080604083850312156121105761210f61205b565b5b600061211e858286016120ae565b925050602061212f858286016120e4565b9150509250929050565b60008115159050919050565b61214e81612139565b82525050565b60006020820190506121696000830184612145565b92915050565b612178816120c3565b82525050565b6000602082019050612193600083018461216f565b92915050565b6000602082840312156121af576121ae61205b565b5b60006121bd848285016120e4565b91505092915050565b6000806000606084860312156121df576121de61205b565b5b60006121ed868287016120ae565b93505060206121fe868287016120ae565b925050604061220f868287016120e4565b9150509250925092565b600060ff82169050919050565b61222f81612219565b82525050565b600060208201905061224a6000830184612226565b92915050565b600080fd5b60006060828403121561226b5761226a612250565b5b81905092915050565b60006020828403121561228a5761228961205b565b5b600082013567ffffffffffffffff8111156122a8576122a7612060565b5b6122b484828501612255565b91505092915050565b6122c6816120c3565b82525050565b6122d581612085565b82525050565b6122e481612139565b82525050565b600082825260208201905092915050565b600061230682611f96565b61231081856122ea565b9350612320818560208601611fb2565b61232981611fe5565b840191505092915050565b6000606083016000830151848203600086015261235182826122fb565b915050602083015161236660208601826122bd565b50604083015161237960408601826122bd565b508091505092915050565b600060c08301600083015161239c60008601826122bd565b5060208301516123af60208601826122cc565b5060408301516123c260408601826122bd565b5060608301516123d560608601826122bd565b5060808301516123e860808601826122db565b5060a083015184820360a08601526124008282612334565b9150508091505092915050565b600060208201905081810360008301526124278184612384565b905092915050565b600080604083850312156124465761244561205b565b5b6000612454858286016120e4565b9250506020612465858286016120e4565b9150509250929050565b600081519050919050565b600082825260208201905092915050565b6000819050602082019050919050565b600060c0830160008301516124b360008601826122bd565b5060208301516124c660208601826122cc565b5060408301516124d960408601826122bd565b5060608301516124ec60608601826122bd565b5060808301516124ff60808601826122db565b5060a083015184820360a08601526125178282612334565b9150508091505092915050565b6000612530838361249b565b905092915050565b6000602082019050919050565b60006125508261246f565b61255a818561247a565b93508360208202850161256c8561248b565b8060005b858110156125a857848403895281516125898582612524565b945061259483612538565b925060208a01995050600181019050612570565b50829750879550505050505092915050565b600060208201905081810360008301526125d48184612545565b905092915050565b6000602082840312156125f2576125f161205b565b5b6000612600848285016120ae565b91505092915050565b61261281612085565b82525050565b600060208201905061262d6000830184612609565b92915050565b6000806040838503121561264a5761264961205b565b5b6000612658858286016120ae565b9250506020612669858286016120ae565b9150509250929050565b7f4e487b7100000000000000000000000000000000000000000000000000000000600052602260045260246000fd5b600060028204905060018216806126ba57607f821691505b602082108114156126ce576126cd612673565b5b50919050565b7f4f776e61626c653a2063616c6c6572206973206e6f7420746865206f776e6572600082015250565b600061270a602083611fa1565b9150612715826126d4565b602082019050919050565b60006020820190508181036000830152612739816126fd565b9050919050565b7f45524332303a207472616e7366657220616d6f756e742065786365656473206160008201527f6c6c6f77616e6365000000000000000000000000000000000000000000000000602082015250565b600061279c602883611fa1565b91506127a782612740565b604082019050919050565b600060208201905081810360008301526127cb8161278f565b9050919050565b7f4e487b7100000000000000000000000000000000000000000000000000000000600052601160045260246000fd5b600061280c826120c3565b9150612817836120c3565b9250827fffffffffffffffffffffffffffffffffffffffffffffffffffffffffffffffff0382111561284c5761284b6127d2565b5b828201905092915050565b600080fd5b600080fd5b600080fd5b6000808335600160200384360303811261288357612882612857565b5b80840192508235915067ffffffffffffffff8211156128a5576128a461285c565b5b6020830192506001820236038313156128c1576128c0612861565b5b509250929050565b7f496e76616c696420626574547970650000000000000000000000000000000000600082015250565b60006128ff600f83611fa1565b915061290a826128c9565b602082019050919050565b6000602082019050818103600083015261292e816128f2565b9050919050565b6000612940826120c3565b915061294b836120c3565b9250817fffffffffffffffffffffffffffffffffffffffffffffffffffffffffffffffff0483118215151615612984576129836127d2565b5b828202905092915050565b600061299a826120c3565b91506129a5836120c3565b9250828210156129b8576129b76127d2565b5b828203905092915050565b600080fd5b7f4e487b7100000000000000000000000000000000000000000000000000000000600052604160045260246000fd5b612a0082611fe5565b810181811067ffffffffffffffff82111715612a1f57612a1e6129c8565b5b80604052505050565b6000612a32612051565b9050612a3e82826129f7565b919050565b600080fd5b600080fd5b600080fd5b600067ffffffffffffffff821115612a6d57612a6c6129c8565b5b612a7682611fe5565b9050602081019050919050565b82818337600083830152505050565b6000612aa5612aa084612a52565b612a28565b905082815260208101848484011115612ac157612ac0612a4d565b5b612acc848285612a83565b509392505050565b600082601f830112612ae957612ae8612a48565b5b8135612af9848260208601612a92565b91505092915050565b600060608284031215612b1857612b176129c3565b5b612b226060612a28565b9050600082013567ffffffffffffffff811115612b4257612b41612a43565b5b612b4e84828501612ad4565b6000830152506020612b62848285016120e4565b6020830152506040612b76848285016120e4565b60408301525092915050565b6000612b8e3683612b02565b9050919050565b7f4e487b7100000000000000000000000000000000000000000000000000000000600052600160045260246000fd5b6000612bcf826120c3565b91506000821415612be357612be26127d2565b5b600182039050919050565b7f4e487b7100000000000000000000000000000000000000000000000000000000600052603260045260246000fd5b6000612c28826120c3565b91507fffffffffffffffffffffffffffffffffffffffffffffffffffffffffffffffff821415612c5b57612c5a6127d2565b5b600182019050919050565b7f45524332303a2064656372656173656420616c6c6f77616e63652062656c6f7760008201527f207a65726f000000000000000000000000000000000000000000000000000000602082015250565b6000612cc2602583611fa1565b9150612ccd82612c66565b604082019050919050565b60006020820190508181036000830152612cf181612cb5565b9050919050565b7f4f776e61626c653a206e6577206f776e657220697320746865207a65726f206160008201527f6464726573730000000000000000000000000000000000000000000000000000602082015250565b6000612d54602683611fa1565b9150612d5f82612cf8565b604082019050919050565b60006020820190508181036000830152612d8381612d47565b9050919050565b7f45524332303a20617070726f76652066726f6d20746865207a65726f2061646460008201527f7265737300000000000000000000000000000000000000000000000000000000602082015250565b6000612de6602483611fa1565b9150612df182612d8a565b604082019050919050565b60006020820190508181036000830152612e1581612dd9565b9050919050565b7f45524332303a20617070726f766520746f20746865207a65726f20616464726560008201527f7373000000000000000000000000000000000000000000000000000000000000602082015250565b6000612e78602283611fa1565b9150612e8382612e1c565b604082019050919050565b60006020820190508181036000830152612ea781612e6b565b9050919050565b7f45524332303a207472616e736665722066726f6d20746865207a65726f20616460008201527f6472657373000000000000000000000000000000000000000000000000000000602082015250565b6000612f0a602583611fa1565b9150612f1582612eae565b604082019050919050565b60006020820190508181036000830152612f3981612efd565b9050919050565b7f45524332303a207472616e7366657220746f20746865207a65726f206164647260008201527f6573730000000000000000000000000000000000000000000000000000000000602082015250565b6000612f9c602383611fa1565b9150612fa782612f40565b604082019050919050565b60006020820190508181036000830152612fcb81612f8f565b9050919050565b7f45524332303a207472616e7366657220616d6f756e742065786365656473206260008201527f616c616e63650000000000000000000000000000000000000000000000000000602082015250565b600061302e602683611fa1565b915061303982612fd2565b604082019050919050565b6000602082019050818103600083015261305d81613021565b9050919050565b7f496e73756666696369656e742042616c616e6365000000000000000000000000600082015250565b600061309a601483611fa1565b91506130a582613064565b602082019050919050565b600060208201905081810360008301526130c98161308d565b9050919050565b6000819050919050565b6130eb6130e6826120c3565b6130d0565b82525050565b60006130fd82856130da565b60208201915061310d82846130da565b6020820191508190509392505050565b7f4e487b7100000000000000000000000000000000000000000000000000000000600052601260045260246000fd5b6000613157826120c3565b9150613162836120c3565b9250826131725761317161311d565b5b828206905092915050565b600081905092915050565b600061319382611f96565b61319d818561317d565b93506131ad818560208601611fb2565b80840191505092915050565b60006131c58284613188565b915081905092915050565b7f45524332303a206d696e7420746f20746865207a65726f206164647265737300600082015250565b6000613206601f83611fa1565b9150613211826131d0565b602082019050919050565b60006020820190508181036000830152613235816131f9565b9050919050565b7f45524332303a206275726e2066726f6d20746865207a65726f2061646472657360008201527f7300000000000000000000000000000000000000000000000000000000000000602082015250565b6000613298602183611fa1565b91506132a38261323c565b604082019050919050565b600060208201905081810360008301526132c78161328b565b9050919050565b7f45524332303a206275726e20616d6f756e7420657863656564732062616c616e60008201527f6365000000000000000000000000000000000000000000000000000000000000602082015250565b600061332a602283611fa1565b9150613335826132ce565b604082019050919050565b600060208201905081810360008301526133598161331d565b9050919050565b600061336b826120c3565b9150613376836120c3565b9250826133865761338561311d565b5b82820490509291505056fea2646970667358221220b9404b192d9d02efd41fec3a6081a40100654c6ff78291d2f43670fd24c3170a64736f6c634300080a0033",
  "immutableReferences": {},
  "source": "// SPDX-License-Identifier: MIT\r\npragma solidity ^0.8.0;\r\n\r\nimport \"@openzeppelin/contracts/token/ERC20/ERC20.sol\";\r\nimport \"@openzeppelin/contracts/access/Ownable.sol\";\r\n\r\ncontract CasinoDiceToken is ERC20, Ownable {\r\n\r\n    struct BetRequest {\r\n        string betType;\r\n        uint betValue;\r\n        uint256 betToken;\r\n    }\r\n    \r\n    struct Game {\r\n        uint256 gameId;\r\n        address player;\r\n        uint date;\r\n        uint result;\r\n        bool win;\r\n        BetRequest betRequest;\r\n    }\r\n        \r\n    event WithdrawSuccessful(address indexed from, uint256 amount);\r\n    event TopupSuccessful(address indexed from, uint256 amount);\r\n    event UpdateBetFeeSuccessful(address indexed from, uint256 amount);\r\n    event GameResult(address indexed from, Game game);\r\n\r\n    uint256 private exchangeRate = 1000;\r\n\r\n    uint256 private _betFee;\r\n    uint256 private currentGameId;\r\n    Game[] private games;\r\n\r\n    constructor() ERC20(\"Casino Dice Token\", \"CDT\") payable{\r\n        _mint(msg.sender, 1000 * (10**uint256(decimals())));\r\n        _betFee = 5 * (10**uint256(decimals()-1));\r\n    }\r\n\r\n    function updateBetFee(uint256 _tokenAmount) public onlyOwner {\r\n        _betFee = _tokenAmount;\r\n        emit UpdateBetFeeSuccessful(msg.sender,_tokenAmount);\r\n    }\r\n\r\n    function _preValidateBuy(address _sender, uint256 _weiAmount) internal pure\r\n    {\r\n        require(_sender != address(0));\r\n        require(_weiAmount != 0);\r\n    }\r\n\r\n    function _preValidateRoll(address _sender, uint256 _tokenAmount) internal view\r\n    {\r\n        require(_sender != address(0));\r\n        uint256 balance = balanceOf(msg.sender);\r\n        require(balance >= _tokenAmount, \"Insufficient Balance\");\r\n    }\r\n\r\n    function _getTokenAmount(uint256 _weiAmount) internal view returns (uint256)\r\n    {\r\n        return _weiAmount * exchangeRate;\r\n    }\r\n\r\n    function _getEthAmount(uint256 _cdtAmount) internal view returns (uint256) {\r\n        return _cdtAmount / exchangeRate;\r\n    }\r\n\r\n    function buy() external payable {\r\n        // uint minAmount = 1 * (10 ** uint256(decimals() - 3));\r\n        // assert(msg.value >  minAmount);\r\n        _preValidateBuy(msg.sender, msg.value);\r\n        uint256 tokenAmount = _getTokenAmount(msg.value);\r\n\r\n        _mint(msg.sender, tokenAmount);\r\n        emit TopupSuccessful(msg.sender, tokenAmount);\r\n    }\r\n\r\n    function withdraw() external {\r\n        uint256 balance = balanceOf(msg.sender);\r\n        assert(balance > 0);\r\n        _burn(msg.sender, balance);\r\n        uint256 ethAmount = _getEthAmount(balance);\r\n        payable(msg.sender).transfer(ethAmount);\r\n        \r\n        emit WithdrawSuccessful(msg.sender, balance);\r\n    }\r\n\r\n\r\n    function roll(BetRequest calldata betRequest) external returns (Game memory game) {\r\n        \r\n        _preValidateRoll(msg.sender, betRequest.betToken);\r\n        uint random = _triggerRandom();\r\n        bool isBigRandom = random >=4 ? true : false;\r\n        bool win = false;\r\n        uint256 betFee = getBetFee();\r\n        uint winMultiplier = 1;\r\n        if(_compareString(betRequest.betType,\"lowHigh\")) {\r\n            bool isBigAnswer = betRequest.betValue == 1 ? true : false;\r\n            win = isBigAnswer == isBigRandom ? true : false;\r\n        }\r\n        else if(_compareString(betRequest.betType,\"guessNumber\")) {\r\n            win = betRequest.betValue == random ? true : false;\r\n            winMultiplier = 6;\r\n        }\r\n        else {\r\n            require(false, \"Invalid betType\");\r\n        }\r\n\r\n        if(win) {\r\n            _mint(msg.sender, (betRequest.betToken * winMultiplier) - betFee);\r\n        } else {\r\n            _burn(msg.sender, betRequest.betToken + betFee);\r\n        }\r\n        \r\n        game = Game(currentGameId, msg.sender, block.timestamp, random, win, betRequest);\r\n        games.push(game);\r\n        currentGameId = currentGameId + 1;\r\n\r\n        emit GameResult(msg.sender, game);\r\n        \r\n    }\r\n\r\n\r\n\r\n    function paginatedGames(uint _resultsPerPage, uint _page) external view returns (Game[] memory) {\r\n        \r\n        uint256 count = games.length;\r\n\r\n        if(count==0) {\r\n            return new Game[](0);\r\n        }   \r\n\r\n        uint256 pageEnd = ((_page - 1) * _resultsPerPage);\r\n        \r\n        if(count > pageEnd) {\r\n          pageEnd = count - pageEnd;\r\n        } else {\r\n          pageEnd = count;\r\n        }\r\n\r\n        uint counter = 0;\r\n\r\n        uint arraySize = pageEnd > _resultsPerPage ? _resultsPerPage : pageEnd;\r\n        Game[] memory result = new Game[](arraySize);\r\n        while(counter<_resultsPerPage) {\r\n           pageEnd--;\r\n           result[counter] = games[pageEnd];\r\n           if(pageEnd == 0){\r\n             break;\r\n           }\r\n           \r\n           counter++;\r\n        }\r\n       \r\n        return result;\r\n    }\r\n    \r\n    function getBetFee() public view returns (uint256) {\r\n        return _betFee;\r\n    }\r\n\r\n    function _triggerRandom() internal view returns (uint256) {\r\n        uint random = uint(keccak256(abi.encodePacked(block.difficulty, block.timestamp)));\r\n        uint randomDice = random % 6;\r\n        return randomDice + 1;\r\n    }\r\n\r\n    function _compareString(string memory a, string memory b) internal pure returns (bool) {\r\n        return keccak256(abi.encodePacked(a))==keccak256(abi.encodePacked(b));\r\n    }\r\n}\r\n",
  "sourcePath": "c:\\workspace\\code\\blockchain-developer-bootcamp-final-project\\contracts\\CasinoDiceToken.sol",
  "compiler": {
    "name": "solc",
    "version": "0.8.10+commit.fc410830.Emscripten.clang"
  },
  "schemaVersion": "3.4.3",
  "updatedAt": "2021-11-25T02:19:46.924Z",
  "networkType": "ethereum",
  "devdoc": {
    "kind": "dev",
    "methods": {
      "allowance(address,address)": {
        "details": "See {IERC20-allowance}."
      },
      "approve(address,uint256)": {
        "details": "See {IERC20-approve}. Requirements: - `spender` cannot be the zero address."
      },
      "balanceOf(address)": {
        "details": "See {IERC20-balanceOf}."
      },
      "decimals()": {
        "details": "Returns the number of decimals used to get its user representation. For example, if `decimals` equals `2`, a balance of `505` tokens should be displayed to a user as `5.05` (`505 / 10 ** 2`). Tokens usually opt for a value of 18, imitating the relationship between Ether and Wei. This is the value {ERC20} uses, unless this function is overridden; NOTE: This information is only used for _display_ purposes: it in no way affects any of the arithmetic of the contract, including {IERC20-balanceOf} and {IERC20-transfer}."
      },
      "decreaseAllowance(address,uint256)": {
        "details": "Atomically decreases the allowance granted to `spender` by the caller. This is an alternative to {approve} that can be used as a mitigation for problems described in {IERC20-approve}. Emits an {Approval} event indicating the updated allowance. Requirements: - `spender` cannot be the zero address. - `spender` must have allowance for the caller of at least `subtractedValue`."
      },
      "increaseAllowance(address,uint256)": {
        "details": "Atomically increases the allowance granted to `spender` by the caller. This is an alternative to {approve} that can be used as a mitigation for problems described in {IERC20-approve}. Emits an {Approval} event indicating the updated allowance. Requirements: - `spender` cannot be the zero address."
      },
      "name()": {
        "details": "Returns the name of the token."
      },
      "owner()": {
        "details": "Returns the address of the current owner."
      },
      "renounceOwnership()": {
        "details": "Leaves the contract without owner. It will not be possible to call `onlyOwner` functions anymore. Can only be called by the current owner. NOTE: Renouncing ownership will leave the contract without an owner, thereby removing any functionality that is only available to the owner."
      },
      "symbol()": {
        "details": "Returns the symbol of the token, usually a shorter version of the name."
      },
      "totalSupply()": {
        "details": "See {IERC20-totalSupply}."
      },
      "transfer(address,uint256)": {
        "details": "See {IERC20-transfer}. Requirements: - `recipient` cannot be the zero address. - the caller must have a balance of at least `amount`."
      },
      "transferFrom(address,address,uint256)": {
        "details": "See {IERC20-transferFrom}. Emits an {Approval} event indicating the updated allowance. This is not required by the EIP. See the note at the beginning of {ERC20}. Requirements: - `sender` and `recipient` cannot be the zero address. - `sender` must have a balance of at least `amount`. - the caller must have allowance for ``sender``'s tokens of at least `amount`."
      },
      "transferOwnership(address)": {
        "details": "Transfers ownership of the contract to a new account (`newOwner`). Can only be called by the current owner."
      }
    },
    "version": 1
  },
  "userdoc": {
    "kind": "user",
    "methods": {},
    "version": 1
  }
}